{
  "contractName": "Burnable",
  "abi": [
    {
      "constant": true,
      "inputs": [
        {
          "name": "_owner",
          "type": "address"
        },
        {
          "name": "_blockNumber",
          "type": "uint256"
        }
      ],
      "name": "balanceOfAt",
      "outputs": [
        {
          "name": "",
          "type": "uint256"
        }
      ],
      "payable": false,
      "stateMutability": "view",
      "type": "function"
    },
    {
      "constant": true,
      "inputs": [
        {
          "name": "_blockNumber",
          "type": "uint256"
        }
      ],
      "name": "totalSupplyAt",
      "outputs": [
        {
          "name": "",
          "type": "uint256"
        }
      ],
      "payable": false,
      "stateMutability": "view",
      "type": "function"
    },
    {
      "anonymous": false,
      "inputs": [
        {
          "indexed": true,
          "name": "burner",
          "type": "address"
        },
        {
          "indexed": false,
          "name": "value",
          "type": "uint256"
        }
      ],
      "name": "Burn",
      "type": "event"
    },
    {
      "anonymous": false,
      "inputs": [
        {
          "indexed": true,
          "name": "from",
          "type": "address"
        },
        {
          "indexed": true,
          "name": "to",
          "type": "address"
        },
        {
          "indexed": false,
          "name": "value",
          "type": "uint256"
        }
      ],
      "name": "Transfer",
      "type": "event"
    },
    {
      "constant": false,
      "inputs": [
        {
          "name": "_value",
          "type": "uint256"
        }
      ],
      "name": "burn",
      "outputs": [
        {
          "name": "",
          "type": "bool"
        }
      ],
      "payable": false,
      "stateMutability": "nonpayable",
      "type": "function"
    }
  ],
  "bytecode": "0x6060604052341561000f57600080fd5b6105308061001e6000396000f300606060405260043610610057576000357c0100000000000000000000000000000000000000000000000000000000900463ffffffff16806342966c681461005c5780634ee2cd7e14610097578063981b24d0146100ed575b600080fd5b341561006757600080fd5b61007d6004808035906020019091905050610124565b604051808215151515815260200191505060405180910390f35b34156100a257600080fd5b6100d7600480803573ffffffffffffffffffffffffffffffffffffffff16906020019091908035906020019091905050610139565b6040518082815260200191505060405180910390f35b34156100f857600080fd5b61010e600480803590602001909190505061018a565b6040518082815260200191505060405180910390f35b6000610130338361019e565b60019050919050565b60006101826000808573ffffffffffffffffffffffffffffffffffffffff1673ffffffffffffffffffffffffffffffffffffffff16815260200190815260200160002083610291565b905092915050565b6000610197600183610291565b9050919050565b6000806101ab8443610139565b91508282101515156101bc57600080fd5b6101c54361018a565b90506102206000808673ffffffffffffffffffffffffffffffffffffffff1673ffffffffffffffffffffffffffffffffffffffff16815260200190815260200160002061021b85856103ce90919063ffffffff16565b6103e7565b61023d600161023885846103ce90919063ffffffff16565b6103e7565b8373ffffffffffffffffffffffffffffffffffffffff167fcc16f5dbb4873280815c1ee09dbd06736cffcc184412cf7a71a0fdb75d397ca5846040518082815260200191505060405180910390a250505050565b6000806000806000868054905014156102ad57600093506103c5565b8560018780549050038154811015156102c257fe5b9060005260206000209060020201600001548510151561030a578560018780549050038154811015156102f157fe5b90600052602060002090600202016001015493506103c5565b85600081548110151561031957fe5b90600052602060002090600202016000015485101561033b57600093506103c5565b60009250600186805490500391505b828211156103a257600260018484010181151561036357fe5b04905084868281548110151561037557fe5b9060005260206000209060020201600001541115156103965780925061039d565b6001810391505b61034a565b85838154811015156103b057fe5b90600052602060002090600202016001015493505b50505092915050565b60008282111515156103dc57fe5b818303905092915050565b60008060008480549050148061042257504384600186805490500381548110151561040e57fe5b906000526020600020906002020160000154105b1561046e578384805480919060010161043b91906104a3565b81548110151561044757fe5b9060005260206000209060020201915043826000018190555082826001018190555061049d565b83600185805490500381548110151561048357fe5b906000526020600020906002020190508281600101819055505b50505050565b8154818355818115116104d0576002028160020283600052602060002091820191016104cf91906104d5565b5b505050565b61050191905b808211156104fd576000808201600090556001820160009055506002016104db565b5090565b905600a165627a7a723058200c673caedfbcc1ea001089e890d9479456b27ccc3cb1bde454d8f7e0231f4c320029",
  "source": "pragma solidity ^0.4.18;\n\nimport './Trackable.sol';\n\ncontract Burnable is Trackable {\n  event Burn(address indexed burner, uint256 value);\n\n  /**\n   * @dev Burns a specific amount of tokens.\n   * @param _value The amount of token to be burned.\n   */\n  function burn(uint256 _value) public returns (bool) {\n    doBurn(msg.sender, _value);\n    return true;\n  }\n\n  function doBurn(address _burner, uint256 _value) internal {\n    var previousBalanceBurner = balanceOfAt(_burner, block.number);\n\n    //throw if trying to burn more than you have\n    require(previousBalanceBurner >= _value);\n    // no need to require value <= totalSupply, since that would imply the\n    // sender's balance is greater than the totalSupply, which *should* be an assertion failure\n    var previousTotalSupply = totalSupplyAt(block.number);\n\n    //update the balance map for the burner\n    updateValueAtNow(balances[_burner], previousBalanceBurner.sub(_value));\n    //update the total supply\n    updateValueAtNow(totalSupplyHistory, previousTotalSupply.sub(_value));\n\n    Burn(_burner, _value);\n  }\n}\n",
  "sourcePath": "/Users/nathan.rempel/ether/lotto/contracts/token/Burnable.sol",
  "compiler": {
    "name": "solc",
    "version": "0.4.19+commit.c4cbbb05.Emscripten.clang"
  },
  "schemaVersion": "1.0.1",
  "updatedAt": "2018-02-12T04:01:24.412Z"
}