{
  "contractName": "Burnable",
  "abi": [
    {
      "constant": false,
      "inputs": [
        {
          "name": "_value",
          "type": "uint256"
        }
      ],
      "name": "burn",
      "outputs": [],
      "payable": false,
      "stateMutability": "nonpayable",
      "type": "function"
    },
    {
      "constant": true,
      "inputs": [
        {
          "name": "_owner",
          "type": "address"
        },
        {
          "name": "_blockNumber",
          "type": "uint256"
        }
      ],
      "name": "balanceOfAt",
      "outputs": [
        {
          "name": "",
          "type": "uint256"
        }
      ],
      "payable": false,
      "stateMutability": "view",
      "type": "function"
    },
    {
      "constant": true,
      "inputs": [
        {
          "name": "_blockNumber",
          "type": "uint256"
        }
      ],
      "name": "totalSupplyAt",
      "outputs": [
        {
          "name": "",
          "type": "uint256"
        }
      ],
      "payable": false,
      "stateMutability": "view",
      "type": "function"
    },
    {
      "anonymous": false,
      "inputs": [
        {
          "indexed": true,
          "name": "burner",
          "type": "address"
        },
        {
          "indexed": false,
          "name": "value",
          "type": "uint256"
        }
      ],
      "name": "Burn",
      "type": "event"
    },
    {
      "anonymous": false,
      "inputs": [
        {
          "indexed": true,
          "name": "from",
          "type": "address"
        },
        {
          "indexed": true,
          "name": "to",
          "type": "address"
        },
        {
          "indexed": false,
          "name": "value",
          "type": "uint256"
        }
      ],
      "name": "Transfer",
      "type": "event"
    }
  ],
  "bytecode": "0x6060604052341561000f57600080fd5b6105108061001e6000396000f300606060405260043610610057576000357c0100000000000000000000000000000000000000000000000000000000900463ffffffff16806342966c681461005c5780634ee2cd7e1461007f578063981b24d0146100d5575b600080fd5b341561006757600080fd5b61007d600480803590602001909190505061010c565b005b341561008a57600080fd5b6100bf600480803573ffffffffffffffffffffffffffffffffffffffff16906020019091908035906020019091905050610119565b6040518082815260200191505060405180910390f35b34156100e057600080fd5b6100f6600480803590602001909190505061016a565b6040518082815260200191505060405180910390f35b610116338261017e565b50565b60006101626000808573ffffffffffffffffffffffffffffffffffffffff1673ffffffffffffffffffffffffffffffffffffffff16815260200190815260200160002083610271565b905092915050565b6000610177600183610271565b9050919050565b60008061018b8443610119565b915082821015151561019c57600080fd5b6101a54361016a565b90506102006000808673ffffffffffffffffffffffffffffffffffffffff1673ffffffffffffffffffffffffffffffffffffffff1681526020019081526020016000206101fb85856103ae90919063ffffffff16565b6103c7565b61021d600161021885846103ae90919063ffffffff16565b6103c7565b8373ffffffffffffffffffffffffffffffffffffffff167fcc16f5dbb4873280815c1ee09dbd06736cffcc184412cf7a71a0fdb75d397ca5846040518082815260200191505060405180910390a250505050565b60008060008060008680549050141561028d57600093506103a5565b8560018780549050038154811015156102a257fe5b906000526020600020906002020160000154851015156102ea578560018780549050038154811015156102d157fe5b90600052602060002090600202016001015493506103a5565b8560008154811015156102f957fe5b90600052602060002090600202016000015485101561031b57600093506103a5565b60009250600186805490500391505b8282111561038257600260018484010181151561034357fe5b04905084868281548110151561035557fe5b9060005260206000209060020201600001541115156103765780925061037d565b6001810391505b61032a565b858381548110151561039057fe5b90600052602060002090600202016001015493505b50505092915050565b60008282111515156103bc57fe5b818303905092915050565b6000806000848054905014806104025750438460018680549050038154811015156103ee57fe5b906000526020600020906002020160000154105b1561044e578384805480919060010161041b9190610483565b81548110151561042757fe5b9060005260206000209060020201915043826000018190555082826001018190555061047d565b83600185805490500381548110151561046357fe5b906000526020600020906002020190508281600101819055505b50505050565b8154818355818115116104b0576002028160020283600052602060002091820191016104af91906104b5565b5b505050565b6104e191905b808211156104dd576000808201600090556001820160009055506002016104bb565b5090565b905600a165627a7a72305820566016bad5234ba6c2525b873f44af496e43cdbdaa8aec059d0cef683910ffe40029",
  "source": "pragma solidity ^0.4.18;\n\nimport './Trackable.sol';\n\ncontract Burnable is Trackable {\n  event Burn(address indexed burner, uint256 value);\n\n  /**\n   * @dev Burns a specific amount of tokens.\n   * @param _value The amount of token to be burned.\n   */\n  function burn(uint256 _value) public {\n      doBurn(msg.sender, _value);\n  }\n\n  function doBurn(address _burner, uint256 _value) internal {\n    var previousBalanceBurner = balanceOfAt(_burner, block.number);\n\n    //throw if trying to burn more than you have\n    require(previousBalanceBurner >= _value);\n    // no need to require value <= totalSupply, since that would imply the\n    // sender's balance is greater than the totalSupply, which *should* be an assertion failure\n    var previousTotalSupply = totalSupplyAt(block.number);\n\n    //update the balance map for the burner\n    updateValueAtNow(balances[_burner], previousBalanceBurner.sub(_value));\n    //update the total supply\n    updateValueAtNow(totalSupplyHistory, previousTotalSupply.sub(_value));\n\n    Burn(_burner, _value);\n  }\n}\n",
  "sourcePath": "/Users/nathan.rempel/ether/lotto/contracts/token/Burnable.sol",
  "compiler": {
    "name": "solc",
    "version": "0.4.18+commit.9cf6e910.Emscripten.clang"
  },
  "schemaVersion": "1.0.1",
  "updatedAt": "2018-02-07T03:29:31.759Z"
}