{
  "contractName": "DividendManager",
  "abi": [
    {
      "constant": true,
      "inputs": [
        {
          "name": "_owner",
          "type": "address"
        }
      ],
      "name": "claimedFor",
      "outputs": [
        {
          "name": "",
          "type": "uint256"
        }
      ],
      "payable": false,
      "stateMutability": "view",
      "type": "function"
    },
    {
      "constant": true,
      "inputs": [
        {
          "name": "_owner",
          "type": "address"
        }
      ],
      "name": "totalIssuedFor",
      "outputs": [
        {
          "name": "",
          "type": "uint256"
        }
      ],
      "payable": false,
      "stateMutability": "view",
      "type": "function"
    },
    {
      "constant": true,
      "inputs": [
        {
          "name": "_owner",
          "type": "address"
        }
      ],
      "name": "unclaimedFor",
      "outputs": [
        {
          "name": "",
          "type": "uint256"
        }
      ],
      "payable": false,
      "stateMutability": "view",
      "type": "function"
    },
    {
      "constant": false,
      "inputs": [],
      "name": "issueDividend",
      "outputs": [
        {
          "name": "",
          "type": "bool"
        }
      ],
      "payable": false,
      "stateMutability": "nonpayable",
      "type": "function"
    },
    {
      "constant": false,
      "inputs": [],
      "name": "forceDividend",
      "outputs": [
        {
          "name": "",
          "type": "bool"
        }
      ],
      "payable": false,
      "stateMutability": "nonpayable",
      "type": "function"
    },
    {
      "constant": true,
      "inputs": [],
      "name": "unissuedBalance",
      "outputs": [
        {
          "name": "",
          "type": "uint256"
        }
      ],
      "payable": false,
      "stateMutability": "view",
      "type": "function"
    },
    {
      "constant": true,
      "inputs": [
        {
          "name": "_owner",
          "type": "address"
        },
        {
          "name": "_dividendID",
          "type": "uint256"
        }
      ],
      "name": "issuedFor",
      "outputs": [
        {
          "name": "",
          "type": "uint256"
        }
      ],
      "payable": false,
      "stateMutability": "view",
      "type": "function"
    },
    {
      "constant": true,
      "inputs": [],
      "name": "owner",
      "outputs": [
        {
          "name": "",
          "type": "address"
        }
      ],
      "payable": false,
      "stateMutability": "view",
      "type": "function"
    },
    {
      "constant": true,
      "inputs": [],
      "name": "lastIssuedTime",
      "outputs": [
        {
          "name": "",
          "type": "uint256"
        }
      ],
      "payable": false,
      "stateMutability": "view",
      "type": "function"
    },
    {
      "constant": false,
      "inputs": [],
      "name": "claimDividend",
      "outputs": [
        {
          "name": "",
          "type": "bool"
        }
      ],
      "payable": false,
      "stateMutability": "nonpayable",
      "type": "function"
    },
    {
      "constant": false,
      "inputs": [
        {
          "name": "newOwner",
          "type": "address"
        }
      ],
      "name": "transferOwnership",
      "outputs": [],
      "payable": false,
      "stateMutability": "nonpayable",
      "type": "function"
    },
    {
      "inputs": [
        {
          "name": "_token",
          "type": "address"
        },
        {
          "name": "_threshold",
          "type": "uint256"
        },
        {
          "name": "_daysPerDividend",
          "type": "uint256"
        }
      ],
      "payable": false,
      "stateMutability": "nonpayable",
      "type": "constructor"
    },
    {
      "payable": true,
      "stateMutability": "payable",
      "type": "fallback"
    },
    {
      "anonymous": false,
      "inputs": [
        {
          "indexed": false,
          "name": "value",
          "type": "uint256"
        },
        {
          "indexed": false,
          "name": "id",
          "type": "uint256"
        }
      ],
      "name": "IssuedDividend",
      "type": "event"
    },
    {
      "anonymous": false,
      "inputs": [
        {
          "indexed": true,
          "name": "owner",
          "type": "address"
        },
        {
          "indexed": false,
          "name": "value",
          "type": "uint256"
        }
      ],
      "name": "ClaimedDividend",
      "type": "event"
    },
    {
      "anonymous": false,
      "inputs": [
        {
          "indexed": true,
          "name": "previousOwner",
          "type": "address"
        },
        {
          "indexed": true,
          "name": "newOwner",
          "type": "address"
        }
      ],
      "name": "OwnershipTransferred",
      "type": "event"
    }
  ],
  "bytecode": "0x6060604052341561000f57600080fd5b604051606080610db483398101604052808051906020019091908051906020019091908051906020019091905050336000806101000a81548173ffffffffffffffffffffffffffffffffffffffff021916908373ffffffffffffffffffffffffffffffffffffffff16021790555082600660006101000a81548173ffffffffffffffffffffffffffffffffffffffff021916908373ffffffffffffffffffffffffffffffffffffffff160217905550816004819055506201518081026005819055506000600381905550505050610cc9806100eb6000396000f3006060604052600436106100af576000357c0100000000000000000000000000000000000000000000000000000000900463ffffffff16806330b50a6d146100b15780633d809b7a146100fe5780634b0833fc1461014b578063506aaede146101985780636933d43e146101c55780637acd3525146101f257806385d34d881461021b5780638da5cb5b14610271578063e59ed806146102c6578063f0fc6bca146102ef578063f2fde38b1461031c575b005b34156100bc57600080fd5b6100e8600480803573ffffffffffffffffffffffffffffffffffffffff16906020019091905050610355565b6040518082815260200191505060405180910390f35b341561010957600080fd5b610135600480803573ffffffffffffffffffffffffffffffffffffffff169060200190919050506103e4565b6040518082815260200191505060405180910390f35b341561015657600080fd5b610182600480803573ffffffffffffffffffffffffffffffffffffffff16906020019091905050610436565b6040518082815260200191505060405180910390f35b34156101a357600080fd5b6101ab6104cf565b604051808215151515815260200191505060405180910390f35b34156101d057600080fd5b6101d8610510565b604051808215151515815260200191505060405180910390f35b34156101fd57600080fd5b61020561057c565b6040518082815260200191505060405180910390f35b341561022657600080fd5b61025b600480803573ffffffffffffffffffffffffffffffffffffffff169060200190919080359060200190919050506105af565b6040518082815260200191505060405180910390f35b341561027c57600080fd5b6102846107c3565b604051808273ffffffffffffffffffffffffffffffffffffffff1673ffffffffffffffffffffffffffffffffffffffff16815260200191505060405180910390f35b34156102d157600080fd5b6102d96107e8565b6040518082815260200191505060405180910390f35b34156102fa57600080fd5b610302610835565b604051808215151515815260200191505060405180910390f35b341561032757600080fd5b610353600480803573ffffffffffffffffffffffffffffffffffffffff16906020019091905050610974565b005b600080600080600160008673ffffffffffffffffffffffffffffffffffffffff1673ffffffffffffffffffffffffffffffffffffffff16815260200190815260200160002054925060009150600090505b828110156103d9576103ca6103bb86836105af565b83610ac990919063ffffffff16565b915080806001019150506103a6565b819350505050919050565b6000806000809150600090505b60016002805490500381101561042c5761041d61040e85836105af565b83610ac990919063ffffffff16565b915080806001019150506103f1565b8192505050919050565b600080600080600160008673ffffffffffffffffffffffffffffffffffffffff1673ffffffffffffffffffffffffffffffffffffffff168152602001908152602001600020549250600091506001830190505b6001600280549050038110156104c4576104b56104a686836105af565b83610ac990919063ffffffff16565b91508080600101915050610489565b819350505050919050565b60006104d961057c565b60045411806104f257506005546104ee6107e8565b0142105b15610500576000905061050d565b610508610ae7565b600190505b90565b60008060009054906101000a900473ffffffffffffffffffffffffffffffffffffffff1673ffffffffffffffffffffffffffffffffffffffff163373ffffffffffffffffffffffffffffffffffffffff1614151561056d57600080fd5b610575610ae7565b6001905090565b60006105aa6003543073ffffffffffffffffffffffffffffffffffffffff1631610bbd90919063ffffffff16565b905090565b600080600080600280549050851015156105c857600080fd5b6002858154811015156105d757fe5b90600052602060002090600402019250600660009054906101000a900473ffffffffffffffffffffffffffffffffffffffff1673ffffffffffffffffffffffffffffffffffffffff16634ee2cd7e8785600101546000604051602001526040518363ffffffff167c0100000000000000000000000000000000000000000000000000000000028152600401808373ffffffffffffffffffffffffffffffffffffffff1673ffffffffffffffffffffffffffffffffffffffff16815260200182815260200192505050602060405180830381600087803b15156106b857600080fd5b6102c65a03f115156106c957600080fd5b505050604051805190509150600660009054906101000a900473ffffffffffffffffffffffffffffffffffffffff1673ffffffffffffffffffffffffffffffffffffffff1663981b24d084600101546000604051602001526040518263ffffffff167c010000000000000000000000000000000000000000000000000000000002815260040180828152602001915050602060405180830381600087803b151561077257600080fd5b6102c65a03f1151561078357600080fd5b5050506040518051905090506107b86107a58284610bd690919063ffffffff16565b8460030154610bf190919063ffffffff16565b935050505092915050565b6000809054906101000a900473ffffffffffffffffffffffffffffffffffffffff1681565b600080600060028054905014156108025760009150610831565b600260016002805490500381548110151561081957fe5b90600052602060002090600402019050806002015491505b5090565b60008061084133610436565b9050600354811115801561086c57503073ffffffffffffffffffffffffffffffffffffffff16318111155b151561087757600080fd5b600160028054905003600160003373ffffffffffffffffffffffffffffffffffffffff1673ffffffffffffffffffffffffffffffffffffffff168152602001908152602001600020819055506108d881600354610bbd90919063ffffffff16565b6003819055503373ffffffffffffffffffffffffffffffffffffffff166108fc829081150290604051600060405180830381858888f19350505050151561091e57600080fd5b3373ffffffffffffffffffffffffffffffffffffffff167fba982bcf7c6f01794176a1f36602e8312ef693332fe64778be8a9dc904bfd7f1826040518082815260200191505060405180910390a2600191505090565b6000809054906101000a900473ffffffffffffffffffffffffffffffffffffffff1673ffffffffffffffffffffffffffffffffffffffff163373ffffffffffffffffffffffffffffffffffffffff161415156109cf57600080fd5b600073ffffffffffffffffffffffffffffffffffffffff168173ffffffffffffffffffffffffffffffffffffffff1614151515610a0b57600080fd5b8073ffffffffffffffffffffffffffffffffffffffff166000809054906101000a900473ffffffffffffffffffffffffffffffffffffffff1673ffffffffffffffffffffffffffffffffffffffff167f8be0079c531659141344cd1fd0a4f28419497f9722a3daafe3b4186f6b6457e060405160405180910390a3806000806101000a81548173ffffffffffffffffffffffffffffffffffffffff021916908373ffffffffffffffffffffffffffffffffffffffff16021790555050565b6000808284019050838110151515610add57fe5b8091505092915050565b6000806000610af461057c565b9250600083111515610b0557600080fd5b60028054809190600101610b199190610c2c565b9150600282815481101515610b2a57fe5b90600052602060002090600402019050818160000181905550438160010181905550428160020181905550828160030181905550610b7383600354610ac990919063ffffffff16565b6003819055507f2ae4d5d5fae666db6be4c0f3c53c0c8a2354b4dca3828c0f5eeb3a38751c7a3e8383604051808381526020018281526020019250505060405180910390a1505050565b6000828211151515610bcb57fe5b818303905092915050565b6000808284811515610be457fe5b0490508091505092915050565b6000806000841415610c065760009150610c25565b8284029050828482811515610c1757fe5b04141515610c2157fe5b8091505b5092915050565b815481835581811511610c5957600402816004028360005260206000209182019101610c589190610c5e565b5b505050565b610c9a91905b80821115610c965760008082016000905560018201600090556002820160009055600382016000905550600401610c64565b5090565b905600a165627a7a72305820bd10bce339ae39d169aa710865dc4b79342d63fc271062edb8ac93395755945f0029",
  "source": "pragma solidity ^0.4.18;\n\nimport '../common/SafeMath.sol';\nimport '../common/Ownable.sol';\nimport '../token/UsefulToken.sol';\n\ncontract DividendManager is Ownable {\n  using SafeMath for uint256;\n  event IssuedDividend(uint256 value, uint256 id);\n  event ClaimedDividend(address indexed owner, uint256 value);\n  //Dividend structure attaches history to an issued dividend\n  struct Dividend {\n    uint256 id;\n    uint256 issuedBlock;\n    uint256 issuedTime;\n    uint256 value;\n  }\n\n  //claimHistory maps the latest dividend id that has been claimed\n  //by a token holder\n  mapping(address=>uint256) claimHistory;\n  //dividends keeps track of all dividends issued\n  Dividend[] dividends;\n  //unclaimedDividends tracks how much dividend has been issued\n  //that has not yet been claimed\n  uint256 unclaimedDividends;\n  //dividend may be issued when the balance-unclaimedDividends > dividendThreshold\n  //or when the dividendTimer seconds has elapsed since the last issued dividend\n  //whichever occurs first.\n  uint256 dividendThreshold;\n  uint256 dividendTimer;\n  //token that dividends are issued to\n  UsefulToken token;\n\n  //construct dividend manager with an existing token\n  function DividendManager(address _token, uint256 _threshold, uint256 _daysPerDividend) public {\n    token = UsefulToken(_token);\n    dividendThreshold = _threshold;\n    dividendTimer = _daysPerDividend * 1 days;\n    unclaimedDividends = 0;\n  }\n\n  //dividend manager can receive ether from anyone\n  function() public payable { }\n\n  //returns the ether balance that hasn't yet been issued as a dividend\n  function unissuedBalance() public view returns (uint256) {\n    return this.balance.sub(unclaimedDividends);\n  }\n\n  //return the last time a dividend was issued\n  function lastIssuedTime() public view returns (uint256) {\n    //dividend has never been issued before\n    if(dividends.length == 0) {\n      return 0;\n    }\n    //get the most recent dividend\n    var lastDividend = dividends[dividends.length-1];\n    return lastDividend.issuedTime;\n  }\n\n  //series of helpers to provide unclaimed, claimed, and issued dividends for a given token holder\n  function unclaimedFor(address _owner) public view returns (uint256) {\n    uint256 lastClaim = claimHistory[_owner];\n    uint256 total = 0;\n    for(uint256 index = lastClaim + 1; index < dividends.length - 1; index++) {\n      total = total.add(issuedFor(_owner,index));\n    }\n    return total;\n  }\n\n  function claimedFor(address _owner) public view returns (uint256) {\n    uint256 lastClaim = claimHistory[_owner];\n    uint256 total = 0;\n    for(uint256 index = 0; index < lastClaim; index++) {\n      total = total.add(issuedFor(_owner,index));\n    }\n    return total;\n  }\n\n  function totalIssuedFor(address _owner) public view returns (uint256) {\n    uint256 totalIssued = 0;\n    for(uint256 index = 0; index < dividends.length - 1; index++) {\n      totalIssued = totalIssued.add(issuedFor(_owner,index));\n    }\n    return totalIssued;\n  }\n\n  function issuedFor(address _owner, uint256 _dividendID) public view returns (uint256) {\n    require(_dividendID < dividends.length);\n    var dividend = dividends[_dividendID];\n    var tokensOwned = token.balanceOfAt(_owner,dividend.issuedBlock);\n    var tokensSupply = token.totalSupplyAt(dividend.issuedBlock);\n    return dividend.value.mul(tokensOwned.div(tokensSupply));\n  }\n\n  //anyone can cause a dividend to be issued if the conditions are met\n  function issueDividend() public returns (bool) {\n    if(dividendThreshold > unissuedBalance() || now < lastIssuedTime() + dividendTimer) {\n      return false;\n    }\n    doIssue();\n    return true;\n  }\n\n  //the owner can force a dividend to be issued if conditions are not yet met\n  function forceDividend() public onlyOwner returns (bool) {\n    doIssue();\n    return true;\n  }\n\n  //anyone can attempt to claim their dividend\n  function claimDividend() public returns (bool) {\n    var totalUnclaimed = unclaimedFor(msg.sender);\n    //enough funds must be available to payout\n    require(totalUnclaimed <= unclaimedDividends && totalUnclaimed <= this.balance);\n    //update claim history to latest dividend\n    claimHistory[msg.sender] = dividends.length - 1;\n    //reduce unclaimed dividends\n    unclaimedDividends = unclaimedDividends.sub(totalUnclaimed);\n    //send the payment\n    msg.sender.transfer(totalUnclaimed);\n    ClaimedDividend(msg.sender,totalUnclaimed);\n    return true;\n  }\n\n  //internal function to generate the actual dividend\n  function doIssue() internal {\n    var issueValue = unissuedBalance();\n    require(issueValue > 0);\n\n    var dividendID = dividends.length++;\n    Dividend storage d = dividends[dividendID];\n    d.id = dividendID;\n    d.issuedBlock = block.number;\n    d.issuedTime = now;\n    d.value = issueValue;\n    unclaimedDividends = unclaimedDividends.add(issueValue);\n    IssuedDividend(issueValue,dividendID);\n  }\n}\n",
  "sourcePath": "/Users/nathan.rempel/ether/lotto/contracts/dividend/DividendManager.sol",
  "compiler": {
    "name": "solc",
    "version": "0.4.18+commit.9cf6e910.Emscripten.clang"
  },
  "schemaVersion": "1.0.1",
  "updatedAt": "2018-02-12T00:57:17.321Z"
}