{
  "contractName": "Mintable",
  "abi": [
    {
      "constant": true,
      "inputs": [
        {
          "name": "_owner",
          "type": "address"
        },
        {
          "name": "_blockNumber",
          "type": "uint256"
        }
      ],
      "name": "balanceOfAt",
      "outputs": [
        {
          "name": "",
          "type": "uint256"
        }
      ],
      "payable": false,
      "stateMutability": "view",
      "type": "function"
    },
    {
      "constant": true,
      "inputs": [],
      "name": "owner",
      "outputs": [
        {
          "name": "",
          "type": "address"
        }
      ],
      "payable": false,
      "stateMutability": "view",
      "type": "function"
    },
    {
      "constant": true,
      "inputs": [
        {
          "name": "_blockNumber",
          "type": "uint256"
        }
      ],
      "name": "totalSupplyAt",
      "outputs": [
        {
          "name": "",
          "type": "uint256"
        }
      ],
      "payable": false,
      "stateMutability": "view",
      "type": "function"
    },
    {
      "constant": false,
      "inputs": [
        {
          "name": "newOwner",
          "type": "address"
        }
      ],
      "name": "transferOwnership",
      "outputs": [],
      "payable": false,
      "stateMutability": "nonpayable",
      "type": "function"
    },
    {
      "anonymous": false,
      "inputs": [
        {
          "indexed": true,
          "name": "recipient",
          "type": "address"
        },
        {
          "indexed": false,
          "name": "value",
          "type": "uint256"
        }
      ],
      "name": "Mint",
      "type": "event"
    },
    {
      "anonymous": false,
      "inputs": [
        {
          "indexed": true,
          "name": "previousOwner",
          "type": "address"
        },
        {
          "indexed": true,
          "name": "newOwner",
          "type": "address"
        }
      ],
      "name": "OwnershipTransferred",
      "type": "event"
    },
    {
      "anonymous": false,
      "inputs": [
        {
          "indexed": true,
          "name": "from",
          "type": "address"
        },
        {
          "indexed": true,
          "name": "to",
          "type": "address"
        },
        {
          "indexed": false,
          "name": "value",
          "type": "uint256"
        }
      ],
      "name": "Transfer",
      "type": "event"
    },
    {
      "constant": false,
      "inputs": [
        {
          "name": "_recipient",
          "type": "address"
        },
        {
          "name": "_value",
          "type": "uint256"
        }
      ],
      "name": "mint",
      "outputs": [],
      "payable": false,
      "stateMutability": "nonpayable",
      "type": "function"
    }
  ],
  "bytecode": "0x606060405233600260006101000a81548173ffffffffffffffffffffffffffffffffffffffff021916908373ffffffffffffffffffffffffffffffffffffffff1602179055506107a4806100546000396000f30060606040526004361061006d576000357c0100000000000000000000000000000000000000000000000000000000900463ffffffff16806340c10f19146100725780634ee2cd7e146100b45780638da5cb5b1461010a578063981b24d01461015f578063f2fde38b14610196575b600080fd5b341561007d57600080fd5b6100b2600480803573ffffffffffffffffffffffffffffffffffffffff169060200190919080359060200190919050506101cf565b005b34156100bf57600080fd5b6100f4600480803573ffffffffffffffffffffffffffffffffffffffff16906020019091908035906020019091905050610239565b6040518082815260200191505060405180910390f35b341561011557600080fd5b61011d61028a565b604051808273ffffffffffffffffffffffffffffffffffffffff1673ffffffffffffffffffffffffffffffffffffffff16815260200191505060405180910390f35b341561016a57600080fd5b61018060048080359060200190919050506102b0565b6040518082815260200191505060405180910390f35b34156101a157600080fd5b6101cd600480803573ffffffffffffffffffffffffffffffffffffffff169060200190919050506102c4565b005b600260009054906101000a900473ffffffffffffffffffffffffffffffffffffffff1673ffffffffffffffffffffffffffffffffffffffff163373ffffffffffffffffffffffffffffffffffffffff1614151561022b57600080fd5b610235828261041c565b5050565b60006102826000808573ffffffffffffffffffffffffffffffffffffffff1673ffffffffffffffffffffffffffffffffffffffff16815260200190815260200160002083610500565b905092915050565b600260009054906101000a900473ffffffffffffffffffffffffffffffffffffffff1681565b60006102bd600183610500565b9050919050565b600260009054906101000a900473ffffffffffffffffffffffffffffffffffffffff1673ffffffffffffffffffffffffffffffffffffffff163373ffffffffffffffffffffffffffffffffffffffff1614151561032057600080fd5b600073ffffffffffffffffffffffffffffffffffffffff168173ffffffffffffffffffffffffffffffffffffffff161415151561035c57600080fd5b8073ffffffffffffffffffffffffffffffffffffffff16600260009054906101000a900473ffffffffffffffffffffffffffffffffffffffff1673ffffffffffffffffffffffffffffffffffffffff167f8be0079c531659141344cd1fd0a4f28419497f9722a3daafe3b4186f6b6457e060405160405180910390a380600260006101000a81548173ffffffffffffffffffffffffffffffffffffffff021916908373ffffffffffffffffffffffffffffffffffffffff16021790555050565b6000806104298443610239565b9150610434436102b0565b905061048f6000808673ffffffffffffffffffffffffffffffffffffffff1673ffffffffffffffffffffffffffffffffffffffff16815260200190815260200160002061048a858561063d90919063ffffffff16565b61065b565b6104ac60016104a7858461063d90919063ffffffff16565b61065b565b8373ffffffffffffffffffffffffffffffffffffffff167f0f6798a560793a54c3bcfe86a93cde1e73087d944c0ea20544137d4121396885846040518082815260200191505060405180910390a250505050565b60008060008060008680549050141561051c5760009350610634565b85600187805490500381548110151561053157fe5b906000526020600020906002020160000154851015156105795785600187805490500381548110151561056057fe5b9060005260206000209060020201600101549350610634565b85600081548110151561058857fe5b9060005260206000209060020201600001548510156105aa5760009350610634565b60009250600186805490500391505b828211156106115760026001848401018115156105d257fe5b0490508486828154811015156105e457fe5b9060005260206000209060020201600001541115156106055780925061060c565b6001810391505b6105b9565b858381548110151561061f57fe5b90600052602060002090600202016001015493505b50505092915050565b600080828401905083811015151561065157fe5b8091505092915050565b60008060008480549050148061069657504384600186805490500381548110151561068257fe5b906000526020600020906002020160000154105b156106e257838480548091906001016106af9190610717565b8154811015156106bb57fe5b90600052602060002090600202019150438260000181905550828260010181905550610711565b8360018580549050038154811015156106f757fe5b906000526020600020906002020190508281600101819055505b50505050565b815481835581811511610744576002028160020283600052602060002091820191016107439190610749565b5b505050565b61077591905b808211156107715760008082016000905560018201600090555060020161074f565b5090565b905600a165627a7a72305820d4bccb7be2dbdffec0990872bddf7155b304b98f2bd34e018b7414447d45ff8f0029",
  "source": "pragma solidity ^0.4.18;\n\nimport './Trackable.sol';\nimport '../common/Ownable.sol';\n\ncontract Mintable is Trackable, Ownable {\n  event Mint(address indexed recipient, uint256 value);\n\n  /**\n   * @dev Mints a specific amount of tokens and gives them to the _recipient.\n   * @param _recipient The recipient of the minted tokens.\n   * @param _value The amount of token to be minted.\n   */\n  function mint(address _recipient, uint256 _value) public onlyOwner {\n      doMint(_recipient, _value);\n  }\n\n  function doMint(address _recipient, uint256 _value) internal {\n    var previousBalance = balanceOfAt(_recipient, block.number);\n    var previousTotalSupply = totalSupplyAt(block.number);\n\n    //update the balance map for the burner\n    updateValueAtNow(balances[_recipient], previousBalance.add(_value));\n    //update the total supply\n    updateValueAtNow(totalSupplyHistory, previousTotalSupply.add(_value));\n\n    Mint(_recipient, _value);\n  }\n}\n",
  "sourcePath": "/Users/nathan.rempel/ether/lotto/contracts/token/Mintable.sol",
  "compiler": {
    "name": "solc",
    "version": "0.4.19+commit.c4cbbb05.Emscripten.clang"
  },
  "schemaVersion": "1.0.1",
  "updatedAt": "2018-02-12T04:01:24.412Z"
}