{
  "contractName": "Stakeable",
  "abi": [
    {
      "constant": false,
      "inputs": [
        {
          "name": "_owner",
          "type": "address"
        },
        {
          "name": "stakeID",
          "type": "uint256"
        }
      ],
      "name": "destroyStake",
      "outputs": [
        {
          "name": "",
          "type": "bool"
        }
      ],
      "payable": false,
      "stateMutability": "nonpayable",
      "type": "function"
    },
    {
      "constant": false,
      "inputs": [
        {
          "name": "_value",
          "type": "uint256"
        }
      ],
      "name": "burn",
      "outputs": [],
      "payable": false,
      "stateMutability": "nonpayable",
      "type": "function"
    },
    {
      "constant": true,
      "inputs": [
        {
          "name": "_owner",
          "type": "address"
        },
        {
          "name": "_blockNumber",
          "type": "uint256"
        }
      ],
      "name": "balanceOfAt",
      "outputs": [
        {
          "name": "",
          "type": "uint256"
        }
      ],
      "payable": false,
      "stateMutability": "view",
      "type": "function"
    },
    {
      "constant": false,
      "inputs": [
        {
          "name": "_holder",
          "type": "address"
        },
        {
          "name": "_value",
          "type": "uint256"
        }
      ],
      "name": "depositStake",
      "outputs": [
        {
          "name": "",
          "type": "uint256"
        }
      ],
      "payable": false,
      "stateMutability": "nonpayable",
      "type": "function"
    },
    {
      "constant": false,
      "inputs": [
        {
          "name": "_owner",
          "type": "address"
        },
        {
          "name": "stakeID",
          "type": "uint256"
        }
      ],
      "name": "returnStake",
      "outputs": [
        {
          "name": "",
          "type": "bool"
        }
      ],
      "payable": false,
      "stateMutability": "nonpayable",
      "type": "function"
    },
    {
      "constant": true,
      "inputs": [
        {
          "name": "_blockNumber",
          "type": "uint256"
        }
      ],
      "name": "totalSupplyAt",
      "outputs": [
        {
          "name": "",
          "type": "uint256"
        }
      ],
      "payable": false,
      "stateMutability": "view",
      "type": "function"
    },
    {
      "constant": true,
      "inputs": [
        {
          "name": "_owner",
          "type": "address"
        }
      ],
      "name": "totalDeposits",
      "outputs": [
        {
          "name": "",
          "type": "uint256"
        }
      ],
      "payable": false,
      "stateMutability": "view",
      "type": "function"
    },
    {
      "anonymous": false,
      "inputs": [
        {
          "indexed": true,
          "name": "owner",
          "type": "address"
        },
        {
          "indexed": true,
          "name": "spender",
          "type": "address"
        },
        {
          "indexed": false,
          "name": "value",
          "type": "uint256"
        },
        {
          "indexed": false,
          "name": "id",
          "type": "uint256"
        }
      ],
      "name": "DepositStake",
      "type": "event"
    },
    {
      "anonymous": false,
      "inputs": [
        {
          "indexed": true,
          "name": "owner",
          "type": "address"
        },
        {
          "indexed": true,
          "name": "spender",
          "type": "address"
        },
        {
          "indexed": false,
          "name": "value",
          "type": "uint256"
        },
        {
          "indexed": false,
          "name": "id",
          "type": "uint256"
        }
      ],
      "name": "ReturnStake",
      "type": "event"
    },
    {
      "anonymous": false,
      "inputs": [
        {
          "indexed": true,
          "name": "owner",
          "type": "address"
        },
        {
          "indexed": true,
          "name": "spender",
          "type": "address"
        },
        {
          "indexed": false,
          "name": "value",
          "type": "uint256"
        },
        {
          "indexed": false,
          "name": "id",
          "type": "uint256"
        }
      ],
      "name": "DestroyStake",
      "type": "event"
    },
    {
      "anonymous": false,
      "inputs": [
        {
          "indexed": true,
          "name": "burner",
          "type": "address"
        },
        {
          "indexed": false,
          "name": "value",
          "type": "uint256"
        }
      ],
      "name": "Burn",
      "type": "event"
    },
    {
      "anonymous": false,
      "inputs": [
        {
          "indexed": true,
          "name": "from",
          "type": "address"
        },
        {
          "indexed": true,
          "name": "to",
          "type": "address"
        },
        {
          "indexed": false,
          "name": "value",
          "type": "uint256"
        }
      ],
      "name": "Transfer",
      "type": "event"
    }
  ],
  "bytecode": "0x6060604052341561000f57600080fd5b610e418061001e6000396000f300606060405260043610610083576000357c0100000000000000000000000000000000000000000000000000000000900463ffffffff16806341cacf6e1461008857806342966c68146100e25780634ee2cd7e146101055780635410f3651461015b5780638fe9ee11146101b1578063981b24d01461020b578063e940325614610242575b600080fd5b341561009357600080fd5b6100c8600480803573ffffffffffffffffffffffffffffffffffffffff1690602001909190803590602001909190505061028f565b604051808215151515815260200191505060405180910390f35b34156100ed57600080fd5b6101036004808035906020019091905050610442565b005b341561011057600080fd5b610145600480803573ffffffffffffffffffffffffffffffffffffffff1690602001909190803590602001909190505061044f565b6040518082815260200191505060405180910390f35b341561016657600080fd5b61019b600480803573ffffffffffffffffffffffffffffffffffffffff169060200190919080359060200190919050506104a0565b6040518082815260200191505060405180910390f35b34156101bc57600080fd5b6101f1600480803573ffffffffffffffffffffffffffffffffffffffff169060200190919080359060200190919050506106c9565b604051808215151515815260200191505060405180910390f35b341561021657600080fd5b61022c600480803590602001909190505061083a565b6040518082815260200191505060405180910390f35b341561024d57600080fd5b610279600480803573ffffffffffffffffffffffffffffffffffffffff1690602001909190505061084e565b6040518082815260200191505060405180910390f35b60008082600260008673ffffffffffffffffffffffffffffffffffffffff1673ffffffffffffffffffffffffffffffffffffffff168152602001908152602001600020805490501115156102e257600080fd5b600260008573ffffffffffffffffffffffffffffffffffffffff1673ffffffffffffffffffffffffffffffffffffffff1681526020019081526020016000208381548110151561032e57fe5b906000526020600020906003020190503373ffffffffffffffffffffffffffffffffffffffff168160020160009054906101000a900473ffffffffffffffffffffffffffffffffffffffff1673ffffffffffffffffffffffffffffffffffffffff161480156103c45750600060028111156103a557fe5b8160000160009054906101000a900460ff1660028111156103c257fe5b145b80156103f85750600160028111156103d857fe5b8160000160009054906101000a900460ff1660028111156103f557fe5b14155b151561040357600080fd5b60028160000160006101000a81548160ff0219169083600281111561042457fe5b02179055506104378482600101546109ba565b600191505092915050565b61044c33826109ba565b50565b60006104986000808573ffffffffffffffffffffffffffffffffffffffff1673ffffffffffffffffffffffffffffffffffffffff16815260200190815260200160002083610aad565b905092915050565b6000806000806104ae610cdd565b600260003373ffffffffffffffffffffffffffffffffffffffff1673ffffffffffffffffffffffffffffffffffffffff1681526020019081526020016000208054905093506104fd874361044f565b92506105088761084e565b91508561051e8385610bea90919063ffffffff16565b1015151561052b57600080fd5b6060604051908101604052806000600281111561054457fe5b81526020018781526020018873ffffffffffffffffffffffffffffffffffffffff168152509050600260003373ffffffffffffffffffffffffffffffffffffffff1673ffffffffffffffffffffffffffffffffffffffff16815260200190815260200160002080548060010182816105bc9190610d20565b9160005260206000209060030201600083909190915060008201518160000160006101000a81548160ff021916908360028111156105f657fe5b02179055506020820151816001015560408201518160020160006101000a81548173ffffffffffffffffffffffffffffffffffffffff021916908373ffffffffffffffffffffffffffffffffffffffff1602179055505050508673ffffffffffffffffffffffffffffffffffffffff163373ffffffffffffffffffffffffffffffffffffffff167fd7459829cfef162e0bf3dd919df788af5d79e82725cb5b33d7e72c6337d48b908887604051808381526020018281526020019250505060405180910390a38394505050505092915050565b60008082600260008673ffffffffffffffffffffffffffffffffffffffff1673ffffffffffffffffffffffffffffffffffffffff1681526020019081526020016000208054905011151561071c57600080fd5b600260008573ffffffffffffffffffffffffffffffffffffffff1673ffffffffffffffffffffffffffffffffffffffff1681526020019081526020016000208381548110151561076857fe5b906000526020600020906003020190503373ffffffffffffffffffffffffffffffffffffffff168160020160009054906101000a900473ffffffffffffffffffffffffffffffffffffffff1673ffffffffffffffffffffffffffffffffffffffff161480156107fe5750600060028111156107df57fe5b8160000160009054906101000a900460ff1660028111156107fc57fe5b145b151561080957600080fd5b60018160000160006101000a81548160ff0219169083600281111561082a57fe5b0217905550600191505092915050565b6000610847600183610aad565b9050919050565b6000806000806000600260008773ffffffffffffffffffffffffffffffffffffffff1673ffffffffffffffffffffffffffffffffffffffff1681526020019081526020016000208054905011156108a857600093506109b2565b60009250600091505b600260008673ffffffffffffffffffffffffffffffffffffffff1673ffffffffffffffffffffffffffffffffffffffff168152602001908152602001600020805490508210156109ae57600260008673ffffffffffffffffffffffffffffffffffffffff1673ffffffffffffffffffffffffffffffffffffffff1681526020019081526020016000208281548110151561094757fe5b906000526020600020906003020190506000600281111561096457fe5b8160000160009054906101000a900460ff16600281111561098157fe5b14156109a15761099e816001015484610c0390919063ffffffff16565b92505b81806001019250506108b1565b8293505b505050919050565b6000806109c7844361044f565b91508282101515156109d857600080fd5b6109e14361083a565b9050610a3c6000808673ffffffffffffffffffffffffffffffffffffffff1673ffffffffffffffffffffffffffffffffffffffff168152602001908152602001600020610a378585610bea90919063ffffffff16565b610c21565b610a596001610a548584610bea90919063ffffffff16565b610c21565b8373ffffffffffffffffffffffffffffffffffffffff167fcc16f5dbb4873280815c1ee09dbd06736cffcc184412cf7a71a0fdb75d397ca5846040518082815260200191505060405180910390a250505050565b600080600080600086805490501415610ac95760009350610be1565b856001878054905003815481101515610ade57fe5b90600052602060002090600202016000015485101515610b2657856001878054905003815481101515610b0d57fe5b9060005260206000209060020201600101549350610be1565b856000815481101515610b3557fe5b906000526020600020906002020160000154851015610b575760009350610be1565b60009250600186805490500391505b82821115610bbe576002600184840101811515610b7f57fe5b049050848682815481101515610b9157fe5b906000526020600020906002020160000154111515610bb257809250610bb9565b6001810391505b610b66565b8583815481101515610bcc57fe5b90600052602060002090600202016001015493505b50505092915050565b6000828211151515610bf857fe5b818303905092915050565b6000808284019050838110151515610c1757fe5b8091505092915050565b600080600084805490501480610c5c575043846001868054905003815481101515610c4857fe5b906000526020600020906002020160000154105b15610ca85783848054809190600101610c759190610d52565b815481101515610c8157fe5b90600052602060002090600202019150438260000181905550828260010181905550610cd7565b836001858054905003815481101515610cbd57fe5b906000526020600020906002020190508281600101819055505b50505050565b60606040519081016040528060006002811115610cf657fe5b815260200160008152602001600073ffffffffffffffffffffffffffffffffffffffff1681525090565b815481835581811511610d4d57600302816003028360005260206000209182019101610d4c9190610d84565b5b505050565b815481835581811511610d7f57600202816002028360005260206000209182019101610d7e9190610de6565b5b505050565b610de391905b80821115610ddf57600080820160006101000a81549060ff021916905560018201600090556002820160006101000a81549073ffffffffffffffffffffffffffffffffffffffff021916905550600301610d8a565b5090565b90565b610e1291905b80821115610e0e57600080820160009055600182016000905550600201610dec565b5090565b905600a165627a7a723058200447dabf63b21bced566af897350a3fa762f1ee1717c36665accd124805e1ce90029",
  "source": "pragma solidity ^0.4.18;\n\nimport './Trackable.sol';\nimport './Burnable.sol';\n\ncontract Stakeable is Trackable, Burnable {\n  event DepositStake(address indexed owner, address indexed spender, uint256 value, uint256 id);\n  event ReturnStake(address indexed owner, address indexed spender, uint256 value, uint256 id);\n  event DestroyStake(address indexed owner, address indexed spender, uint256 value, uint256 id);\n\n  enum StakeState { Deposited, Returned, Destroyed }\n\n  /// @dev `Stake` is the structure that attaches a state to a\n  ///  given value of stake\n  struct Stake {\n      // `fromBlock` is the block number that the value was generated from\n      StakeState state;\n      // `value` is the amount of tokens at a specific block number\n      uint256 value;\n      // `holder` is the address that holds the stake\n      address holder;\n  }\n\n  // `deposits` tracks current stakes that have been deposited\n  mapping (address => Stake[]) deposits;\n\n  /**\n   * @dev depositStake deposits a number of tokens with the holder\n   *\n   */\n  function depositStake(address _holder, uint256 _value) public returns (uint256) {\n    var stakeID = deposits[msg.sender].length;\n    var tokens = balanceOfAt(_holder, block.number);\n    var staked = totalDeposits(_holder);\n\n    require(tokens.sub(staked) >= _value);\n\n    var newStake = Stake({\n      state: StakeState.Deposited,\n      value: _value,\n      holder: _holder\n    });\n\n    deposits[msg.sender].push(newStake);\n\n    DepositStake(msg.sender, _holder, _value, stakeID);\n    return stakeID;\n  }\n\n  /**\n   * @dev returnStake returns a number of tokens from the stake holder\n   *\n   */\n  function returnStake(address _owner, uint256 stakeID) public returns (bool) {\n    //Must be a possible stakeID\n    require(deposits[_owner].length > stakeID);\n    var theStake = deposits[_owner][stakeID];\n\n    //The sender must be the deposit holder of this stake\n    //and the stake must be in a deposited state\n    require(theStake.holder == msg.sender && theStake.state == StakeState.Deposited);\n\n    theStake.state = StakeState.Returned;\n    return true;\n  }\n\n  /**\n   * @dev returnStake returns a number of tokens from the stake holder\n   *\n   */\n  function destroyStake(address _owner, uint256 stakeID) public returns (bool) {\n    //Must be a possible stakeID\n    require(deposits[_owner].length > stakeID);\n    var theStake = deposits[_owner][stakeID];\n\n    //The sender must be the deposit holder of this stake\n    //and the stake must be in a deposited state\n    //and the stake must not be returned\n    require(theStake.holder == msg.sender\n      && theStake.state == StakeState.Deposited\n      && theStake.state != StakeState.Returned);\n\n    theStake.state = StakeState.Destroyed;\n    //run the burn command here\n    doBurn(_owner,theStake.value);\n    return true;\n  }\n\n  /**\n   * @dev Function to check the amount of tokens that an owner has staked\n   * @param _owner address The address which owns the funds.\n   * @return A uint256 specifying the amount of tokens that are staked.\n   */\n  function totalDeposits(address _owner) public view returns (uint256) {\n    //Has owner actually deposited before\n    if(deposits[_owner].length > 0) {\n      //nope\n      return 0;\n    }\n\n    uint256 staked = 0;\n\n    for(uint256 index = 0; index < deposits[_owner].length; index++) {\n      var deposit = deposits[_owner][index];\n      // only deposited stakes are held up\n      if(deposit.state == StakeState.Deposited) {\n        staked = staked.add(deposit.value);\n      }\n    }\n\n    return staked;\n  }\n}\n",
  "sourcePath": "/Users/nathan.rempel/ether/lotto/contracts/token/Stakeable.sol",
  "compiler": {
    "name": "solc",
    "version": "0.4.18+commit.9cf6e910.Emscripten.clang"
  },
  "schemaVersion": "1.0.1",
  "updatedAt": "2018-02-07T01:21:55.427Z"
}