{
  "contractName": "Stakeable",
  "abi": [
    {
      "constant": false,
      "inputs": [
        {
          "name": "_owner",
          "type": "address"
        },
        {
          "name": "_depositID",
          "type": "uint256"
        }
      ],
      "name": "destroyDeposit",
      "outputs": [
        {
          "name": "",
          "type": "bool"
        }
      ],
      "payable": false,
      "stateMutability": "nonpayable",
      "type": "function"
    },
    {
      "constant": true,
      "inputs": [
        {
          "name": "_owner",
          "type": "address"
        },
        {
          "name": "_depositID",
          "type": "uint256"
        }
      ],
      "name": "getDeposit",
      "outputs": [
        {
          "name": "",
          "type": "uint256"
        },
        {
          "name": "",
          "type": "address"
        },
        {
          "name": "",
          "type": "address"
        },
        {
          "name": "",
          "type": "uint8"
        },
        {
          "name": "",
          "type": "uint256"
        }
      ],
      "payable": false,
      "stateMutability": "view",
      "type": "function"
    },
    {
      "constant": false,
      "inputs": [
        {
          "name": "_holder",
          "type": "address"
        },
        {
          "name": "_value",
          "type": "uint256"
        }
      ],
      "name": "submitDeposit",
      "outputs": [
        {
          "name": "",
          "type": "uint256"
        }
      ],
      "payable": false,
      "stateMutability": "nonpayable",
      "type": "function"
    },
    {
      "constant": false,
      "inputs": [
        {
          "name": "_owner",
          "type": "address"
        },
        {
          "name": "_depositID",
          "type": "uint256"
        }
      ],
      "name": "rejectDeposit",
      "outputs": [
        {
          "name": "",
          "type": "bool"
        }
      ],
      "payable": false,
      "stateMutability": "nonpayable",
      "type": "function"
    },
    {
      "constant": false,
      "inputs": [
        {
          "name": "_value",
          "type": "uint256"
        }
      ],
      "name": "burn",
      "outputs": [
        {
          "name": "",
          "type": "bool"
        }
      ],
      "payable": false,
      "stateMutability": "nonpayable",
      "type": "function"
    },
    {
      "constant": true,
      "inputs": [
        {
          "name": "_owner",
          "type": "address"
        },
        {
          "name": "_blockNumber",
          "type": "uint256"
        }
      ],
      "name": "balanceOfAt",
      "outputs": [
        {
          "name": "",
          "type": "uint256"
        }
      ],
      "payable": false,
      "stateMutability": "view",
      "type": "function"
    },
    {
      "constant": false,
      "inputs": [
        {
          "name": "_owner",
          "type": "address"
        },
        {
          "name": "_depositID",
          "type": "uint256"
        }
      ],
      "name": "acceptDeposit",
      "outputs": [
        {
          "name": "",
          "type": "bool"
        }
      ],
      "payable": false,
      "stateMutability": "nonpayable",
      "type": "function"
    },
    {
      "constant": false,
      "inputs": [
        {
          "name": "_depositID",
          "type": "uint256"
        }
      ],
      "name": "cancelDeposit",
      "outputs": [
        {
          "name": "",
          "type": "bool"
        }
      ],
      "payable": false,
      "stateMutability": "nonpayable",
      "type": "function"
    },
    {
      "constant": true,
      "inputs": [
        {
          "name": "_blockNumber",
          "type": "uint256"
        }
      ],
      "name": "totalSupplyAt",
      "outputs": [
        {
          "name": "",
          "type": "uint256"
        }
      ],
      "payable": false,
      "stateMutability": "view",
      "type": "function"
    },
    {
      "constant": false,
      "inputs": [
        {
          "name": "_owner",
          "type": "address"
        },
        {
          "name": "_depositID",
          "type": "uint256"
        }
      ],
      "name": "returnDeposit",
      "outputs": [
        {
          "name": "",
          "type": "bool"
        }
      ],
      "payable": false,
      "stateMutability": "nonpayable",
      "type": "function"
    },
    {
      "constant": true,
      "inputs": [
        {
          "name": "_owner",
          "type": "address"
        }
      ],
      "name": "totalDeposits",
      "outputs": [
        {
          "name": "",
          "type": "uint256"
        }
      ],
      "payable": false,
      "stateMutability": "view",
      "type": "function"
    },
    {
      "anonymous": false,
      "inputs": [
        {
          "indexed": true,
          "name": "owner",
          "type": "address"
        },
        {
          "indexed": true,
          "name": "holder",
          "type": "address"
        },
        {
          "indexed": false,
          "name": "value",
          "type": "uint256"
        },
        {
          "indexed": false,
          "name": "id",
          "type": "uint256"
        }
      ],
      "name": "SubmitDeposit",
      "type": "event"
    },
    {
      "anonymous": false,
      "inputs": [
        {
          "indexed": true,
          "name": "owner",
          "type": "address"
        },
        {
          "indexed": true,
          "name": "holder",
          "type": "address"
        },
        {
          "indexed": false,
          "name": "value",
          "type": "uint256"
        },
        {
          "indexed": false,
          "name": "id",
          "type": "uint256"
        }
      ],
      "name": "AcceptDeposit",
      "type": "event"
    },
    {
      "anonymous": false,
      "inputs": [
        {
          "indexed": true,
          "name": "owner",
          "type": "address"
        },
        {
          "indexed": true,
          "name": "holder",
          "type": "address"
        },
        {
          "indexed": false,
          "name": "value",
          "type": "uint256"
        },
        {
          "indexed": false,
          "name": "id",
          "type": "uint256"
        }
      ],
      "name": "RejectDeposit",
      "type": "event"
    },
    {
      "anonymous": false,
      "inputs": [
        {
          "indexed": true,
          "name": "owner",
          "type": "address"
        },
        {
          "indexed": true,
          "name": "holder",
          "type": "address"
        },
        {
          "indexed": false,
          "name": "value",
          "type": "uint256"
        },
        {
          "indexed": false,
          "name": "id",
          "type": "uint256"
        }
      ],
      "name": "CancelDeposit",
      "type": "event"
    },
    {
      "anonymous": false,
      "inputs": [
        {
          "indexed": true,
          "name": "owner",
          "type": "address"
        },
        {
          "indexed": true,
          "name": "holder",
          "type": "address"
        },
        {
          "indexed": false,
          "name": "value",
          "type": "uint256"
        },
        {
          "indexed": false,
          "name": "id",
          "type": "uint256"
        }
      ],
      "name": "ReturnDeposit",
      "type": "event"
    },
    {
      "anonymous": false,
      "inputs": [
        {
          "indexed": true,
          "name": "owner",
          "type": "address"
        },
        {
          "indexed": true,
          "name": "holder",
          "type": "address"
        },
        {
          "indexed": false,
          "name": "value",
          "type": "uint256"
        },
        {
          "indexed": false,
          "name": "id",
          "type": "uint256"
        }
      ],
      "name": "DestroyDeposit",
      "type": "event"
    },
    {
      "anonymous": false,
      "inputs": [
        {
          "indexed": true,
          "name": "burner",
          "type": "address"
        },
        {
          "indexed": false,
          "name": "value",
          "type": "uint256"
        }
      ],
      "name": "Burn",
      "type": "event"
    },
    {
      "anonymous": false,
      "inputs": [
        {
          "indexed": true,
          "name": "from",
          "type": "address"
        },
        {
          "indexed": true,
          "name": "to",
          "type": "address"
        },
        {
          "indexed": false,
          "name": "value",
          "type": "uint256"
        }
      ],
      "name": "Transfer",
      "type": "event"
    }
  ],
  "bytecode": "0x6060604052341561000f57600080fd5b611ace8061001e6000396000f3006060604052600436106100af576000357c0100000000000000000000000000000000000000000000000000000000900463ffffffff16806313c704b9146100b45780632726b5061461010e57806334d2a168146101e657806338e9a2801461023c57806342966c68146102965780634ee2cd7e146102d157806353e273341461032757806372fada5c14610381578063981b24d0146103bc578063d29709fb146103f3578063e94032561461044d575b600080fd5b34156100bf57600080fd5b6100f4600480803573ffffffffffffffffffffffffffffffffffffffff1690602001909190803590602001909190505061049a565b604051808215151515815260200191505060405180910390f35b341561011957600080fd5b61014e600480803573ffffffffffffffffffffffffffffffffffffffff169060200190919080359060200190919050506106fa565b604051808681526020018573ffffffffffffffffffffffffffffffffffffffff1673ffffffffffffffffffffffffffffffffffffffff1681526020018473ffffffffffffffffffffffffffffffffffffffff1673ffffffffffffffffffffffffffffffffffffffff1681526020018360058111156101c857fe5b60ff1681526020018281526020019550505050505060405180910390f35b34156101f157600080fd5b610226600480803573ffffffffffffffffffffffffffffffffffffffff1690602001909190803590602001909190505061082a565b6040518082815260200191505060405180910390f35b341561024757600080fd5b61027c600480803573ffffffffffffffffffffffffffffffffffffffff16906020019091908035906020019091905050610ad6565b604051808215151515815260200191505060405180910390f35b34156102a157600080fd5b6102b76004808035906020019091905050610d04565b604051808215151515815260200191505060405180910390f35b34156102dc57600080fd5b610311600480803573ffffffffffffffffffffffffffffffffffffffff16906020019091908035906020019091905050610d53565b6040518082815260200191505060405180910390f35b341561033257600080fd5b610367600480803573ffffffffffffffffffffffffffffffffffffffff16906020019091908035906020019091905050610da4565b604051808215151515815260200191505060405180910390f35b341561038c57600080fd5b6103a26004808035906020019091905050610fd2565b604051808215151515815260200191505060405180910390f35b34156103c757600080fd5b6103dd60048080359060200190919050506111ff565b6040518082815260200191505060405180910390f35b34156103fe57600080fd5b610433600480803573ffffffffffffffffffffffffffffffffffffffff16906020019091908035906020019091905050611213565b604051808215151515815260200191505060405180910390f35b341561045857600080fd5b610484600480803573ffffffffffffffffffffffffffffffffffffffff16906020019091905050611441565b6040518082815260200191505060405180910390f35b60008082600260008673ffffffffffffffffffffffffffffffffffffffff1673ffffffffffffffffffffffffffffffffffffffff168152602001908152602001600020805490501115156104ed57600080fd5b600260008573ffffffffffffffffffffffffffffffffffffffff1673ffffffffffffffffffffffffffffffffffffffff1681526020019081526020016000208381548110151561053957fe5b906000526020600020906004020190503373ffffffffffffffffffffffffffffffffffffffff168160020160009054906101000a900473ffffffffffffffffffffffffffffffffffffffff1673ffffffffffffffffffffffffffffffffffffffff161480156105cf5750600160058111156105b057fe5b8160020160149054906101000a900460ff1660058111156105cd57fe5b145b15156105da57600080fd5b61060c8160010160009054906101000a900473ffffffffffffffffffffffffffffffffffffffff1682600301546115df565b60058160020160146101000a81548160ff0219169083600581111561062d57fe5b02179055508060020160009054906101000a900473ffffffffffffffffffffffffffffffffffffffff1673ffffffffffffffffffffffffffffffffffffffff168160010160009054906101000a900473ffffffffffffffffffffffffffffffffffffffff1673ffffffffffffffffffffffffffffffffffffffff167fa37d2df93940185e034f33e9312d95e49f9276acc6f211a02b3bca62caa85e7d83600301548460000154604051808381526020018281526020019250505060405180910390a3600191505092915050565b60008060008060008086600260008a73ffffffffffffffffffffffffffffffffffffffff1673ffffffffffffffffffffffffffffffffffffffff1681526020019081526020016000208054905011151561075357600080fd5b600260008973ffffffffffffffffffffffffffffffffffffffff1673ffffffffffffffffffffffffffffffffffffffff1681526020019081526020016000208781548110151561079f57fe5b9060005260206000209060040201905080600001548160010160009054906101000a900473ffffffffffffffffffffffffffffffffffffffff168260020160009054906101000a900473ffffffffffffffffffffffffffffffffffffffff168360020160149054906101000a900460ff16846003015495509550955095509550509295509295909350565b600080600080610838611917565b600260003373ffffffffffffffffffffffffffffffffffffffff1673ffffffffffffffffffffffffffffffffffffffff1681526020019081526020016000208054905093506108873343610d53565b925061089233611441565b9150856108a883856116d290919063ffffffff16565b101515156108b557600080fd5b60a0604051908101604052808581526020013373ffffffffffffffffffffffffffffffffffffffff1681526020018873ffffffffffffffffffffffffffffffffffffffff1681526020016000600581111561090c57fe5b8152602001878152509050600260003373ffffffffffffffffffffffffffffffffffffffff1673ffffffffffffffffffffffffffffffffffffffff1681526020019081526020016000208054806001018281610968919061197e565b916000526020600020906004020160008390919091506000820151816000015560208201518160010160006101000a81548173ffffffffffffffffffffffffffffffffffffffff021916908373ffffffffffffffffffffffffffffffffffffffff16021790555060408201518160020160006101000a81548173ffffffffffffffffffffffffffffffffffffffff021916908373ffffffffffffffffffffffffffffffffffffffff16021790555060608201518160020160146101000a81548160ff02191690836005811115610a3a57fe5b021790555060808201518160030155505050806040015173ffffffffffffffffffffffffffffffffffffffff16816020015173ffffffffffffffffffffffffffffffffffffffff167fbbb31c154ac6d68684abbe0777a615aacda260972131765ac9d9158f3dba1b6183608001518460000151604051808381526020018281526020019250505060405180910390a38394505050505092915050565b60008082600260008673ffffffffffffffffffffffffffffffffffffffff1673ffffffffffffffffffffffffffffffffffffffff16815260200190815260200160002080549050111515610b2957600080fd5b600260008573ffffffffffffffffffffffffffffffffffffffff1673ffffffffffffffffffffffffffffffffffffffff16815260200190815260200160002083815481101515610b7557fe5b906000526020600020906004020190503373ffffffffffffffffffffffffffffffffffffffff168160020160009054906101000a900473ffffffffffffffffffffffffffffffffffffffff1673ffffffffffffffffffffffffffffffffffffffff16148015610c0b575060006005811115610bec57fe5b8160020160149054906101000a900460ff166005811115610c0957fe5b145b1515610c1657600080fd5b60038160020160146101000a81548160ff02191690836005811115610c3757fe5b02179055508060020160009054906101000a900473ffffffffffffffffffffffffffffffffffffffff1673ffffffffffffffffffffffffffffffffffffffff168160010160009054906101000a900473ffffffffffffffffffffffffffffffffffffffff1673ffffffffffffffffffffffffffffffffffffffff167f5fafee86c07caba8ff962f1bcd4c6f337dd5c2f78114fab90c859b13db74a33783600301548460000154604051808381526020018281526020019250505060405180910390a3600191505092915050565b6000806000610d133343610d53565b9150610d1e33611441565b905083610d3482846116d290919063ffffffff16565b10151515610d4157600080fd5b610d4a846116eb565b92505050919050565b6000610d9c6000808573ffffffffffffffffffffffffffffffffffffffff1673ffffffffffffffffffffffffffffffffffffffff16815260200190815260200160002083611700565b905092915050565b60008082600260008673ffffffffffffffffffffffffffffffffffffffff1673ffffffffffffffffffffffffffffffffffffffff16815260200190815260200160002080549050111515610df757600080fd5b600260008573ffffffffffffffffffffffffffffffffffffffff1673ffffffffffffffffffffffffffffffffffffffff16815260200190815260200160002083815481101515610e4357fe5b906000526020600020906004020190503373ffffffffffffffffffffffffffffffffffffffff168160020160009054906101000a900473ffffffffffffffffffffffffffffffffffffffff1673ffffffffffffffffffffffffffffffffffffffff16148015610ed9575060006005811115610eba57fe5b8160020160149054906101000a900460ff166005811115610ed757fe5b145b1515610ee457600080fd5b60018160020160146101000a81548160ff02191690836005811115610f0557fe5b02179055508060020160009054906101000a900473ffffffffffffffffffffffffffffffffffffffff1673ffffffffffffffffffffffffffffffffffffffff168160010160009054906101000a900473ffffffffffffffffffffffffffffffffffffffff1673ffffffffffffffffffffffffffffffffffffffff167f739e292abba03c6d1245b39079daa2c618b7775d85a7c4a58eba04be3be49d0e83600301548460000154604051808381526020018281526020019250505060405180910390a3600191505092915050565b60008082600260003373ffffffffffffffffffffffffffffffffffffffff1673ffffffffffffffffffffffffffffffffffffffff1681526020019081526020016000208054905011151561102557600080fd5b600260003373ffffffffffffffffffffffffffffffffffffffff1673ffffffffffffffffffffffffffffffffffffffff1681526020019081526020016000208381548110151561107157fe5b906000526020600020906004020190503373ffffffffffffffffffffffffffffffffffffffff168160010160009054906101000a900473ffffffffffffffffffffffffffffffffffffffff1673ffffffffffffffffffffffffffffffffffffffff161480156111075750600060058111156110e857fe5b8160020160149054906101000a900460ff16600581111561110557fe5b145b151561111257600080fd5b60028160020160146101000a81548160ff0219169083600581111561113357fe5b02179055508060020160009054906101000a900473ffffffffffffffffffffffffffffffffffffffff1673ffffffffffffffffffffffffffffffffffffffff168160010160009054906101000a900473ffffffffffffffffffffffffffffffffffffffff1673ffffffffffffffffffffffffffffffffffffffff167fcd097ed2c9aa081cb2f5a864e6b0cadd9ffa6b7f27338fe3af2f18c1db94f2ff83600301548460000154604051808381526020018281526020019250505060405180910390a36001915050919050565b600061120c600183611700565b9050919050565b60008082600260008673ffffffffffffffffffffffffffffffffffffffff1673ffffffffffffffffffffffffffffffffffffffff1681526020019081526020016000208054905011151561126657600080fd5b600260008573ffffffffffffffffffffffffffffffffffffffff1673ffffffffffffffffffffffffffffffffffffffff168152602001908152602001600020838154811015156112b257fe5b906000526020600020906004020190503373ffffffffffffffffffffffffffffffffffffffff168160020160009054906101000a900473ffffffffffffffffffffffffffffffffffffffff1673ffffffffffffffffffffffffffffffffffffffff1614801561134857506001600581111561132957fe5b8160020160149054906101000a900460ff16600581111561134657fe5b145b151561135357600080fd5b60048160020160146101000a81548160ff0219169083600581111561137457fe5b02179055508060020160009054906101000a900473ffffffffffffffffffffffffffffffffffffffff1673ffffffffffffffffffffffffffffffffffffffff168160010160009054906101000a900473ffffffffffffffffffffffffffffffffffffffff1673ffffffffffffffffffffffffffffffffffffffff167f0f13c94404402754fc32731e1f926250cfe61d9c42dcba710918635160a3633283600301548460000154604051808381526020018281526020019250505060405180910390a3600191505092915050565b6000806000806000600260008773ffffffffffffffffffffffffffffffffffffffff1673ffffffffffffffffffffffffffffffffffffffff16815260200190815260200160002080549050141561149b57600093506115d7565b60009250600091505b600260008673ffffffffffffffffffffffffffffffffffffffff1673ffffffffffffffffffffffffffffffffffffffff168152602001908152602001600020805490508210156115d357600260008673ffffffffffffffffffffffffffffffffffffffff1673ffffffffffffffffffffffffffffffffffffffff1681526020019081526020016000208281548110151561153a57fe5b906000526020600020906004020190506001600581111561155757fe5b8160020160149054906101000a900460ff16600581111561157457fe5b14806115a757506000600581111561158857fe5b8160020160149054906101000a900460ff1660058111156115a557fe5b145b156115c6576115c381600301548461183d90919063ffffffff16565b92505b81806001019250506114a4565b8293505b505050919050565b6000806115ec8443610d53565b91508282101515156115fd57600080fd5b611606436111ff565b90506116616000808673ffffffffffffffffffffffffffffffffffffffff1673ffffffffffffffffffffffffffffffffffffffff16815260200190815260200160002061165c85856116d290919063ffffffff16565b61185b565b61167e600161167985846116d290919063ffffffff16565b61185b565b8373ffffffffffffffffffffffffffffffffffffffff167fcc16f5dbb4873280815c1ee09dbd06736cffcc184412cf7a71a0fdb75d397ca5846040518082815260200191505060405180910390a250505050565b60008282111515156116e057fe5b818303905092915050565b60006116f733836115df565b60019050919050565b60008060008060008680549050141561171c5760009350611834565b85600187805490500381548110151561173157fe5b906000526020600020906002020160000154851015156117795785600187805490500381548110151561176057fe5b9060005260206000209060020201600101549350611834565b85600081548110151561178857fe5b9060005260206000209060020201600001548510156117aa5760009350611834565b60009250600186805490500391505b828211156118115760026001848401018115156117d257fe5b0490508486828154811015156117e457fe5b9060005260206000209060020201600001541115156118055780925061180c565b6001810391505b6117b9565b858381548110151561181f57fe5b90600052602060002090600202016001015493505b50505092915050565b600080828401905083811015151561185157fe5b8091505092915050565b60008060008480549050148061189657504384600186805490500381548110151561188257fe5b906000526020600020906002020160000154105b156118e257838480548091906001016118af91906119b0565b8154811015156118bb57fe5b90600052602060002090600202019150438260000181905550828260010181905550611911565b8360018580549050038154811015156118f757fe5b906000526020600020906002020190508281600101819055505b50505050565b60a06040519081016040528060008152602001600073ffffffffffffffffffffffffffffffffffffffff168152602001600073ffffffffffffffffffffffffffffffffffffffff1681526020016000600581111561197157fe5b8152602001600081525090565b8154818355818115116119ab576004028160040283600052602060002091820191016119aa91906119e2565b5b505050565b8154818355818115116119dd576002028160020283600052602060002091820191016119dc9190611a73565b5b505050565b611a7091905b80821115611a6c576000808201600090556001820160006101000a81549073ffffffffffffffffffffffffffffffffffffffff02191690556002820160006101000a81549073ffffffffffffffffffffffffffffffffffffffff02191690556002820160146101000a81549060ff02191690556003820160009055506004016119e8565b5090565b90565b611a9f91905b80821115611a9b57600080820160009055600182016000905550600201611a79565b5090565b905600a165627a7a723058202eb1b5df7791ca734da2add489295629d60d06efa1999a06305d99b2af4155e60029",
  "source": "pragma solidity ^0.4.18;\n\nimport './Burnable.sol';\n\n/**\n * @title Stakeable token\n *\n * @dev Provide an ability to deposit tokens as a stake without losing access dividends and voting rights\n * @dev To avoid tokens being permanents in limbo by depositing them with uncooperating contracts/people\n * we utilize a submit -> accept/reject/cancel workflow. Once accepted the deposit may be returned/destroyed.\n */\n\ncontract Stakeable is Burnable {\n  event SubmitDeposit(address indexed owner, address indexed holder, uint256 value, uint256 id);\n  event AcceptDeposit(address indexed owner, address indexed holder, uint256 value, uint256 id);\n  event RejectDeposit(address indexed owner, address indexed holder, uint256 value, uint256 id);\n  event CancelDeposit(address indexed owner, address indexed holder, uint256 value, uint256 id);\n  event ReturnDeposit(address indexed owner, address indexed holder, uint256 value, uint256 id);\n  event DestroyDeposit(address indexed owner, address indexed holder, uint256 value, uint256 id);\n\n  enum DepositState { Submitted, Staked, Cancelled, Rejected, Returned, Destroyed }\n\n  /// @dev `Deposit` is the structure that attaches a state to a\n  ///  given value of stake\n  struct Deposit {\n    // `id` is the id of this deposit\n    uint256 id;\n    // `owner` is the address that submitted the stake\n    address owner;\n    // `holder` is the address that holds the stake\n    address holder;\n    // `state` is the current state of this stake\n    DepositState state;\n    // `value` is the amount of tokens placed as a stake\n    uint256 value;\n  }\n\n  // `deposits` tracks current stakes that have been deposited\n  mapping (address => Deposit[]) deposits;\n\n  /**\n   * @dev Burns a specific amount of tokens - override so we dont burn staked coins\n   * @param _value The amount of token to be burned.\n   * @return A bool specifying the burn was successful\n   */\n  function burn(uint256 _value) public returns (bool) {\n    var tokenBalance = balanceOfAt(msg.sender, block.number);\n    var depositBalance = totalDeposits(msg.sender);\n    //free balance must be greater than value to allow a burn\n    require(tokenBalance.sub(depositBalance) >= _value);\n    //proceed with the parent burn\n    return super.burn(_value);\n  }\n\n  /**\n   * @dev submitDeposit submits a deposit of number of tokens with the holder\n   * pending acceptance by the holder\n   * @param _holder address The address which holds the deposit\n   * @param _value uint256 The value of the deposit\n   * @return A uint256 specifying the ID of the deposit\n   */\n  function submitDeposit(address _holder, uint256 _value) public returns (uint256) {\n    var depositID = deposits[msg.sender].length;\n    var tokenBalance = balanceOfAt(msg.sender, block.number);\n    var depositBalance = totalDeposits(msg.sender);\n    //free balance must be greater than value to allow a burn\n    require(tokenBalance.sub(depositBalance) >= _value);\n    //build deposit and push to mapping\n    var deposit = Deposit({\n      id: depositID,\n      owner: msg.sender,\n      holder: _holder,\n      state: DepositState.Submitted,\n      value: _value\n    });\n    deposits[msg.sender].push(deposit);\n    //fire event\n    SubmitDeposit(deposit.owner, deposit.holder, deposit.value, deposit.id);\n    return depositID;\n  }\n\n  /**\n   * @dev cancelDeposit allows the owner to cancel a submitted deposit\n   * @param _depositID uint256 The ID of the deposit being returned\n   * @return A bool specifying the accept was successful\n   */\n  function cancelDeposit(uint256 _depositID) public returns (bool) {\n    //Must be a possible depositID\n    require(deposits[msg.sender].length > _depositID);\n    var deposit = deposits[msg.sender][_depositID];\n    //The sender must be the deposit owner of this stake\n    //and the deposit must be in a valid state\n    require(deposit.owner == msg.sender && deposit.state == DepositState.Submitted);\n    //set state and fire event\n    deposit.state = DepositState.Cancelled;\n    CancelDeposit(deposit.owner, deposit.holder, deposit.value, deposit.id);\n    return true;\n  }\n\n  /**\n   * @dev acceptDeposit allows the holder to accept a submitted deposit\n   * @param _owner address The address which owns the funds.\n   * @param _depositID uint256 The ID of the deposit being accepted\n   * @return A bool specifying the accept was successful\n   */\n  function acceptDeposit(address _owner, uint256 _depositID) public returns (bool) {\n    //Must be a possible depositID\n    require(deposits[_owner].length > _depositID);\n    var deposit = deposits[_owner][_depositID];\n    //The sender must be the deposit holder of this stake\n    //and the deposit must be in a valid state\n    require(deposit.holder == msg.sender && deposit.state == DepositState.Submitted);\n    //set state and fire event\n    deposit.state = DepositState.Staked;\n    AcceptDeposit(deposit.owner, deposit.holder, deposit.value, deposit.id);\n    return true;\n  }\n\n  /**\n   * @dev rejectDeposit allows the holder to reject a submitted deposit\n   * @param _owner address The address which owns the funds.\n   * @param _depositID uint256 The ID of the deposit being rejected\n   * @return A bool specifying the accept was successful\n   */\n  function rejectDeposit(address _owner, uint256 _depositID) public returns (bool) {\n    //Must be a possible depositID\n    require(deposits[_owner].length > _depositID);\n    var deposit = deposits[_owner][_depositID];\n    //The sender must be the deposit holder of this stake\n    //and the deposit must be in a valid state\n    require(deposit.holder == msg.sender && deposit.state == DepositState.Submitted);\n    //set state and fire event\n    deposit.state = DepositState.Rejected;\n    RejectDeposit(deposit.owner, deposit.holder, deposit.value, deposit.id);\n    return true;\n  }\n\n  /**\n   * @dev returnDeposit returns a number of tokens from the stake holder\n   * @param _owner address The address which owns the funds.\n   * @param _depositID uint256 The ID of the deposit being returned\n   * @return A bool specifying the return was successful\n   */\n  function returnDeposit(address _owner, uint256 _depositID) public returns (bool) {\n    //Must be a possible depositID\n    require(deposits[_owner].length > _depositID);\n    var deposit = deposits[_owner][_depositID];\n    //The sender must be the deposit holder of this stake\n    //and the deposit must be in a valid state\n    require(deposit.holder == msg.sender && deposit.state == DepositState.Staked);\n    //set state and fire event\n    deposit.state = DepositState.Returned;\n    ReturnDeposit(deposit.owner, deposit.holder, deposit.value, deposit.id);\n    return true;\n  }\n\n  /**\n   * @dev destroyDeposit destroys a number of tokens by the stake holder\n   * @param _owner address The address which owns the funds.\n   * @param _depositID uint256 The ID of the deposit being destroyed\n   * @return A bool specifying the destroy was successful\n   */\n  function destroyDeposit(address _owner, uint256 _depositID) public returns (bool) {\n    //Must be a possible depositID\n    require(deposits[_owner].length > _depositID);\n    var deposit = deposits[_owner][_depositID];\n    //The sender must be the deposit holder of this stake\n    //and the deposit must be in a valid state\n    require(deposit.holder == msg.sender && deposit.state == DepositState.Staked);\n    //run the internal burn command here\n    doBurn(deposit.owner,deposit.value);\n    //set state and fire event\n    deposit.state = DepositState.Destroyed;\n    DestroyDeposit(deposit.owner, deposit.holder, deposit.value, deposit.id);\n    return true;\n  }\n\n  /**\n   * @dev getDeposit returns the deposit details for a specific deposit\n   * @param _owner address The address which owns the funds.\n   * @param _depositID uint256 The ID of the deposit being destroyed\n   * @return A bool specifying the destroy was successful\n   */\n  function getDeposit(address _owner, uint256 _depositID) public view\n    returns (uint256, address, address, DepositState, uint256) {\n    //Must be a possible stakeID\n    require(deposits[_owner].length > _depositID);\n    var deposit = deposits[_owner][_depositID];\n    return (deposit.id, deposit.owner, deposit.holder, deposit.state, deposit.value);\n  }\n\n  /**\n   * @dev Function to check the amount of tokens that an owner has staked\n   * @param _owner address The address which owns the funds.\n   * @return A uint256 specifying the amount of tokens that are staked.\n   */\n  function totalDeposits(address _owner) public view returns (uint256) {\n    //Has owner actually deposited before\n    if(deposits[_owner].length == 0) {\n      //nope\n      return 0;\n    }\n    //get the total deposits made\n    uint256 depositBalance = 0;\n    for(uint256 index = 0; index < deposits[_owner].length; index++) {\n      var deposit = deposits[_owner][index];\n      // only pending and staked deposits are tallied\n      if(deposit.state == DepositState.Staked || deposit.state == DepositState.Submitted) {\n        depositBalance = depositBalance.add(deposit.value);\n      }\n    }\n    return depositBalance;\n  }\n}\n",
  "sourcePath": "/Users/nathan.rempel/ether/lotto/contracts/token/Stakeable.sol",
  "compiler": {
    "name": "solc",
    "version": "0.4.18+commit.9cf6e910.Emscripten.clang"
  },
  "schemaVersion": "1.0.1",
  "updatedAt": "2018-02-09T01:16:26.818Z"
}