{
  "contractName": "Stakeable",
  "abi": [
    {
      "constant": false,
      "inputs": [
        {
          "name": "_owner",
          "type": "address"
        },
        {
          "name": "stakeID",
          "type": "uint256"
        }
      ],
      "name": "destroyStake",
      "outputs": [
        {
          "name": "",
          "type": "bool"
        }
      ],
      "payable": false,
      "stateMutability": "nonpayable",
      "type": "function"
    },
    {
      "constant": false,
      "inputs": [
        {
          "name": "_value",
          "type": "uint256"
        }
      ],
      "name": "burn",
      "outputs": [],
      "payable": false,
      "stateMutability": "nonpayable",
      "type": "function"
    },
    {
      "constant": true,
      "inputs": [
        {
          "name": "_owner",
          "type": "address"
        },
        {
          "name": "_blockNumber",
          "type": "uint256"
        }
      ],
      "name": "balanceOfAt",
      "outputs": [
        {
          "name": "",
          "type": "uint256"
        }
      ],
      "payable": false,
      "stateMutability": "view",
      "type": "function"
    },
    {
      "constant": false,
      "inputs": [
        {
          "name": "_holder",
          "type": "address"
        },
        {
          "name": "_value",
          "type": "uint256"
        }
      ],
      "name": "depositStake",
      "outputs": [
        {
          "name": "",
          "type": "uint256"
        }
      ],
      "payable": false,
      "stateMutability": "nonpayable",
      "type": "function"
    },
    {
      "constant": false,
      "inputs": [
        {
          "name": "_owner",
          "type": "address"
        },
        {
          "name": "stakeID",
          "type": "uint256"
        }
      ],
      "name": "returnStake",
      "outputs": [
        {
          "name": "",
          "type": "bool"
        }
      ],
      "payable": false,
      "stateMutability": "nonpayable",
      "type": "function"
    },
    {
      "constant": true,
      "inputs": [
        {
          "name": "_blockNumber",
          "type": "uint256"
        }
      ],
      "name": "totalSupplyAt",
      "outputs": [
        {
          "name": "",
          "type": "uint256"
        }
      ],
      "payable": false,
      "stateMutability": "view",
      "type": "function"
    },
    {
      "constant": true,
      "inputs": [
        {
          "name": "_owner",
          "type": "address"
        },
        {
          "name": "stakeID",
          "type": "uint256"
        }
      ],
      "name": "checkStake",
      "outputs": [
        {
          "name": "",
          "type": "uint8"
        },
        {
          "name": "",
          "type": "uint256"
        },
        {
          "name": "",
          "type": "address"
        }
      ],
      "payable": false,
      "stateMutability": "view",
      "type": "function"
    },
    {
      "constant": true,
      "inputs": [
        {
          "name": "_owner",
          "type": "address"
        }
      ],
      "name": "totalDeposits",
      "outputs": [
        {
          "name": "",
          "type": "uint256"
        }
      ],
      "payable": false,
      "stateMutability": "view",
      "type": "function"
    },
    {
      "anonymous": false,
      "inputs": [
        {
          "indexed": true,
          "name": "owner",
          "type": "address"
        },
        {
          "indexed": true,
          "name": "spender",
          "type": "address"
        },
        {
          "indexed": false,
          "name": "value",
          "type": "uint256"
        },
        {
          "indexed": false,
          "name": "id",
          "type": "uint256"
        }
      ],
      "name": "DepositStake",
      "type": "event"
    },
    {
      "anonymous": false,
      "inputs": [
        {
          "indexed": true,
          "name": "owner",
          "type": "address"
        },
        {
          "indexed": true,
          "name": "spender",
          "type": "address"
        },
        {
          "indexed": false,
          "name": "value",
          "type": "uint256"
        },
        {
          "indexed": false,
          "name": "id",
          "type": "uint256"
        }
      ],
      "name": "ReturnStake",
      "type": "event"
    },
    {
      "anonymous": false,
      "inputs": [
        {
          "indexed": true,
          "name": "owner",
          "type": "address"
        },
        {
          "indexed": true,
          "name": "spender",
          "type": "address"
        },
        {
          "indexed": false,
          "name": "value",
          "type": "uint256"
        },
        {
          "indexed": false,
          "name": "id",
          "type": "uint256"
        }
      ],
      "name": "DestroyStake",
      "type": "event"
    },
    {
      "anonymous": false,
      "inputs": [
        {
          "indexed": true,
          "name": "burner",
          "type": "address"
        },
        {
          "indexed": false,
          "name": "value",
          "type": "uint256"
        }
      ],
      "name": "Burn",
      "type": "event"
    },
    {
      "anonymous": false,
      "inputs": [
        {
          "indexed": true,
          "name": "from",
          "type": "address"
        },
        {
          "indexed": true,
          "name": "to",
          "type": "address"
        },
        {
          "indexed": false,
          "name": "value",
          "type": "uint256"
        }
      ],
      "name": "Transfer",
      "type": "event"
    }
  ],
  "bytecode": "0x6060604052341561000f57600080fd5b610fb88061001e6000396000f30060606040526004361061008e576000357c0100000000000000000000000000000000000000000000000000000000900463ffffffff16806341cacf6e1461009357806342966c68146100ed5780634ee2cd7e146101105780635410f365146101665780638fe9ee11146101bc578063981b24d014610216578063a69e71701461024d578063e9403256146102eb575b600080fd5b341561009e57600080fd5b6100d3600480803573ffffffffffffffffffffffffffffffffffffffff16906020019091908035906020019091905050610338565b604051808215151515815260200191505060405180910390f35b34156100f857600080fd5b61010e60048080359060200190919050506104eb565b005b341561011b57600080fd5b610150600480803573ffffffffffffffffffffffffffffffffffffffff169060200190919080359060200190919050506104f8565b6040518082815260200191505060405180910390f35b341561017157600080fd5b6101a6600480803573ffffffffffffffffffffffffffffffffffffffff16906020019091908035906020019091905050610549565b6040518082815260200191505060405180910390f35b34156101c757600080fd5b6101fc600480803573ffffffffffffffffffffffffffffffffffffffff16906020019091908035906020019091905050610772565b604051808215151515815260200191505060405180910390f35b341561022157600080fd5b61023760048080359060200190919050506108e3565b6040518082815260200191505060405180910390f35b341561025857600080fd5b61028d600480803573ffffffffffffffffffffffffffffffffffffffff169060200190919080359060200190919050506108f7565b6040518084600281111561029d57fe5b60ff1681526020018381526020018273ffffffffffffffffffffffffffffffffffffffff1673ffffffffffffffffffffffffffffffffffffffff168152602001935050505060405180910390f35b34156102f657600080fd5b610322600480803573ffffffffffffffffffffffffffffffffffffffff169060200190919050506109f3565b6040518082815260200191505060405180910390f35b60008082600260008673ffffffffffffffffffffffffffffffffffffffff1673ffffffffffffffffffffffffffffffffffffffff1681526020019081526020016000208054905011151561038b57600080fd5b600260008573ffffffffffffffffffffffffffffffffffffffff1673ffffffffffffffffffffffffffffffffffffffff168152602001908152602001600020838154811015156103d757fe5b906000526020600020906003020190503373ffffffffffffffffffffffffffffffffffffffff168160020160009054906101000a900473ffffffffffffffffffffffffffffffffffffffff1673ffffffffffffffffffffffffffffffffffffffff1614801561046d57506000600281111561044e57fe5b8160000160009054906101000a900460ff16600281111561046b57fe5b145b80156104a157506001600281111561048157fe5b8160000160009054906101000a900460ff16600281111561049e57fe5b14155b15156104ac57600080fd5b60028160000160006101000a81548160ff021916908360028111156104cd57fe5b02179055506104e0848260010154610b4f565b600191505092915050565b6104f53382610b4f565b50565b60006105416000808573ffffffffffffffffffffffffffffffffffffffff1673ffffffffffffffffffffffffffffffffffffffff16815260200190815260200160002083610c42565b905092915050565b600080600080610557610e54565b600260003373ffffffffffffffffffffffffffffffffffffffff1673ffffffffffffffffffffffffffffffffffffffff1681526020019081526020016000208054905093506105a687436104f8565b92506105b1876109f3565b9150856105c78385610d7f90919063ffffffff16565b101515156105d457600080fd5b606060405190810160405280600060028111156105ed57fe5b81526020018781526020018873ffffffffffffffffffffffffffffffffffffffff168152509050600260003373ffffffffffffffffffffffffffffffffffffffff1673ffffffffffffffffffffffffffffffffffffffff16815260200190815260200160002080548060010182816106659190610e97565b9160005260206000209060030201600083909190915060008201518160000160006101000a81548160ff0219169083600281111561069f57fe5b02179055506020820151816001015560408201518160020160006101000a81548173ffffffffffffffffffffffffffffffffffffffff021916908373ffffffffffffffffffffffffffffffffffffffff1602179055505050508673ffffffffffffffffffffffffffffffffffffffff163373ffffffffffffffffffffffffffffffffffffffff167fd7459829cfef162e0bf3dd919df788af5d79e82725cb5b33d7e72c6337d48b908887604051808381526020018281526020019250505060405180910390a38394505050505092915050565b60008082600260008673ffffffffffffffffffffffffffffffffffffffff1673ffffffffffffffffffffffffffffffffffffffff168152602001908152602001600020805490501115156107c557600080fd5b600260008573ffffffffffffffffffffffffffffffffffffffff1673ffffffffffffffffffffffffffffffffffffffff1681526020019081526020016000208381548110151561081157fe5b906000526020600020906003020190503373ffffffffffffffffffffffffffffffffffffffff168160020160009054906101000a900473ffffffffffffffffffffffffffffffffffffffff1673ffffffffffffffffffffffffffffffffffffffff161480156108a757506000600281111561088857fe5b8160000160009054906101000a900460ff1660028111156108a557fe5b145b15156108b257600080fd5b60018160000160006101000a81548160ff021916908360028111156108d357fe5b0217905550600191505092915050565b60006108f0600183610c42565b9050919050565b60008060008084600260008873ffffffffffffffffffffffffffffffffffffffff1673ffffffffffffffffffffffffffffffffffffffff1681526020019081526020016000208054905011151561094d57600080fd5b600260008773ffffffffffffffffffffffffffffffffffffffff1673ffffffffffffffffffffffffffffffffffffffff1681526020019081526020016000208581548110151561099957fe5b906000526020600020906003020190508060000160009054906101000a900460ff1681600101548260020160009054906101000a900473ffffffffffffffffffffffffffffffffffffffff16935093509350509250925092565b6000806000806000600260008773ffffffffffffffffffffffffffffffffffffffff1673ffffffffffffffffffffffffffffffffffffffff168152602001908152602001600020805490501415610a4d5760009350610b47565b60009250600091505b600260008673ffffffffffffffffffffffffffffffffffffffff1673ffffffffffffffffffffffffffffffffffffffff16815260200190815260200160002080549050821015610b4357600260008673ffffffffffffffffffffffffffffffffffffffff1673ffffffffffffffffffffffffffffffffffffffff16815260200190815260200160002082815481101515610aec57fe5b9060005260206000209060030201905060006002811115610b0957fe5b8160000160009054906101000a900460ff166002811115610b2657fe5b1415610b36578060010154830192505b8180600101925050610a56565b8293505b505050919050565b600080610b5c84436104f8565b9150828210151515610b6d57600080fd5b610b76436108e3565b9050610bd16000808673ffffffffffffffffffffffffffffffffffffffff1673ffffffffffffffffffffffffffffffffffffffff168152602001908152602001600020610bcc8585610d7f90919063ffffffff16565b610d98565b610bee6001610be98584610d7f90919063ffffffff16565b610d98565b8373ffffffffffffffffffffffffffffffffffffffff167fcc16f5dbb4873280815c1ee09dbd06736cffcc184412cf7a71a0fdb75d397ca5846040518082815260200191505060405180910390a250505050565b600080600080600086805490501415610c5e5760009350610d76565b856001878054905003815481101515610c7357fe5b90600052602060002090600202016000015485101515610cbb57856001878054905003815481101515610ca257fe5b9060005260206000209060020201600101549350610d76565b856000815481101515610cca57fe5b906000526020600020906002020160000154851015610cec5760009350610d76565b60009250600186805490500391505b82821115610d53576002600184840101811515610d1457fe5b049050848682815481101515610d2657fe5b906000526020600020906002020160000154111515610d4757809250610d4e565b6001810391505b610cfb565b8583815481101515610d6157fe5b90600052602060002090600202016001015493505b50505092915050565b6000828211151515610d8d57fe5b818303905092915050565b600080600084805490501480610dd3575043846001868054905003815481101515610dbf57fe5b906000526020600020906002020160000154105b15610e1f5783848054809190600101610dec9190610ec9565b815481101515610df857fe5b90600052602060002090600202019150438260000181905550828260010181905550610e4e565b836001858054905003815481101515610e3457fe5b906000526020600020906002020190508281600101819055505b50505050565b60606040519081016040528060006002811115610e6d57fe5b815260200160008152602001600073ffffffffffffffffffffffffffffffffffffffff1681525090565b815481835581811511610ec457600302816003028360005260206000209182019101610ec39190610efb565b5b505050565b815481835581811511610ef657600202816002028360005260206000209182019101610ef59190610f5d565b5b505050565b610f5a91905b80821115610f5657600080820160006101000a81549060ff021916905560018201600090556002820160006101000a81549073ffffffffffffffffffffffffffffffffffffffff021916905550600301610f01565b5090565b90565b610f8991905b80821115610f8557600080820160009055600182016000905550600201610f63565b5090565b905600a165627a7a7230582065c184996d4b54770709330deb52cec641a73308c04e46737a996d188f5ecf8d0029",
  "source": "pragma solidity ^0.4.18;\n\nimport './Trackable.sol';\nimport './Burnable.sol';\n\ncontract Stakeable is Trackable, Burnable {\n  event DepositStake(address indexed owner, address indexed spender, uint256 value, uint256 id);\n  event ReturnStake(address indexed owner, address indexed spender, uint256 value, uint256 id);\n  event DestroyStake(address indexed owner, address indexed spender, uint256 value, uint256 id);\n\n  enum StakeState { Deposited, Returned, Destroyed }\n\n  /// @dev `Stake` is the structure that attaches a state to a\n  ///  given value of stake\n  struct Stake {\n      // `fromBlock` is the block number that the value was generated from\n      StakeState state;\n      // `value` is the amount of tokens at a specific block number\n      uint256 value;\n      // `holder` is the address that holds the stake\n      address holder;\n  }\n\n  // `deposits` tracks current stakes that have been deposited\n  mapping (address => Stake[]) deposits;\n\n  /**\n   * @dev depositStake deposits a number of tokens with the holder\n   *\n   */\n  function depositStake(address _holder, uint256 _value) public returns (uint256) {\n    var stakeID = deposits[msg.sender].length;\n    var tokens = balanceOfAt(_holder, block.number);\n    var staked = totalDeposits(_holder);\n\n    require(tokens.sub(staked) >= _value);\n\n    var newStake = Stake({\n      state: StakeState.Deposited,\n      value: _value,\n      holder: _holder\n    });\n\n    deposits[msg.sender].push(newStake);\n\n    DepositStake(msg.sender, _holder, _value, stakeID);\n    return stakeID;\n  }\n\n  function checkStake(address _owner, uint256 stakeID) public view returns (StakeState, uint256, address) {\n    //Must be a possible stakeID\n    require(deposits[_owner].length > stakeID);\n    var deposit = deposits[_owner][stakeID];\n\n    return (deposit.state, deposit.value, deposit.holder);\n  }\n\n  /**\n   * @dev returnStake returns a number of tokens from the stake holder\n   *\n   */\n  function returnStake(address _owner, uint256 stakeID) public returns (bool) {\n    //Must be a possible stakeID\n    require(deposits[_owner].length > stakeID);\n    var theStake = deposits[_owner][stakeID];\n\n    //The sender must be the deposit holder of this stake\n    //and the stake must be in a deposited state\n    require(theStake.holder == msg.sender && theStake.state == StakeState.Deposited);\n\n    theStake.state = StakeState.Returned;\n    return true;\n  }\n\n  /**\n   * @dev returnStake returns a number of tokens from the stake holder\n   *\n   */\n  function destroyStake(address _owner, uint256 stakeID) public returns (bool) {\n    //Must be a possible stakeID\n    require(deposits[_owner].length > stakeID);\n    var theStake = deposits[_owner][stakeID];\n\n    //The sender must be the deposit holder of this stake\n    //and the stake must be in a deposited state\n    //and the stake must not be returned\n    require(theStake.holder == msg.sender\n      && theStake.state == StakeState.Deposited\n      && theStake.state != StakeState.Returned);\n\n    theStake.state = StakeState.Destroyed;\n    //run the burn command here\n    doBurn(_owner,theStake.value);\n    return true;\n  }\n\n  /**\n   * @dev Function to check the amount of tokens that an owner has staked\n   * @param _owner address The address which owns the funds.\n   * @return A uint256 specifying the amount of tokens that are staked.\n   */\n  function totalDeposits(address _owner) public view returns (uint256) {\n\n    //Has owner actually deposited before\n    if(deposits[_owner].length == 0) {\n      //nope\n      return 0;\n    }\n\n    uint256 staked = 0;\n\n    for(uint256 index = 0; index < deposits[_owner].length; index++) {\n      var deposit = deposits[_owner][index];\n      // only deposited stakes are held up\n      if(deposit.state == StakeState.Deposited) {\n        staked += deposit.value;\n      }\n    }\n\n    return staked;\n  }\n}\n",
  "sourcePath": "/Users/nathan.rempel/ether/lotto/contracts/token/Stakeable.sol",
  "compiler": {
    "name": "solc",
    "version": "0.4.18+commit.9cf6e910.Emscripten.clang"
  },
  "schemaVersion": "1.0.1",
  "updatedAt": "2018-02-07T03:29:31.759Z"
}