{
  "contractName": "Stakeable",
  "abi": [
    {
      "constant": false,
      "inputs": [
        {
          "name": "_owner",
          "type": "address"
        },
        {
          "name": "stakeID",
          "type": "uint256"
        }
      ],
      "name": "destroyStake",
      "outputs": [
        {
          "name": "",
          "type": "bool"
        }
      ],
      "payable": false,
      "stateMutability": "nonpayable",
      "type": "function"
    },
    {
      "constant": false,
      "inputs": [
        {
          "name": "_value",
          "type": "uint256"
        }
      ],
      "name": "burn",
      "outputs": [
        {
          "name": "",
          "type": "bool"
        }
      ],
      "payable": false,
      "stateMutability": "nonpayable",
      "type": "function"
    },
    {
      "constant": true,
      "inputs": [
        {
          "name": "_owner",
          "type": "address"
        },
        {
          "name": "_blockNumber",
          "type": "uint256"
        }
      ],
      "name": "balanceOfAt",
      "outputs": [
        {
          "name": "",
          "type": "uint256"
        }
      ],
      "payable": false,
      "stateMutability": "view",
      "type": "function"
    },
    {
      "constant": false,
      "inputs": [
        {
          "name": "_holder",
          "type": "address"
        },
        {
          "name": "_value",
          "type": "uint256"
        }
      ],
      "name": "depositStake",
      "outputs": [
        {
          "name": "",
          "type": "uint256"
        }
      ],
      "payable": false,
      "stateMutability": "nonpayable",
      "type": "function"
    },
    {
      "constant": false,
      "inputs": [
        {
          "name": "_owner",
          "type": "address"
        },
        {
          "name": "stakeID",
          "type": "uint256"
        }
      ],
      "name": "returnStake",
      "outputs": [
        {
          "name": "",
          "type": "bool"
        }
      ],
      "payable": false,
      "stateMutability": "nonpayable",
      "type": "function"
    },
    {
      "constant": true,
      "inputs": [
        {
          "name": "_blockNumber",
          "type": "uint256"
        }
      ],
      "name": "totalSupplyAt",
      "outputs": [
        {
          "name": "",
          "type": "uint256"
        }
      ],
      "payable": false,
      "stateMutability": "view",
      "type": "function"
    },
    {
      "constant": true,
      "inputs": [
        {
          "name": "_owner",
          "type": "address"
        },
        {
          "name": "stakeID",
          "type": "uint256"
        }
      ],
      "name": "checkStake",
      "outputs": [
        {
          "name": "",
          "type": "uint8"
        },
        {
          "name": "",
          "type": "uint256"
        },
        {
          "name": "",
          "type": "address"
        }
      ],
      "payable": false,
      "stateMutability": "view",
      "type": "function"
    },
    {
      "constant": true,
      "inputs": [
        {
          "name": "_owner",
          "type": "address"
        }
      ],
      "name": "totalDeposits",
      "outputs": [
        {
          "name": "",
          "type": "uint256"
        }
      ],
      "payable": false,
      "stateMutability": "view",
      "type": "function"
    },
    {
      "anonymous": false,
      "inputs": [
        {
          "indexed": true,
          "name": "owner",
          "type": "address"
        },
        {
          "indexed": true,
          "name": "spender",
          "type": "address"
        },
        {
          "indexed": false,
          "name": "value",
          "type": "uint256"
        },
        {
          "indexed": false,
          "name": "id",
          "type": "uint256"
        }
      ],
      "name": "DepositStake",
      "type": "event"
    },
    {
      "anonymous": false,
      "inputs": [
        {
          "indexed": true,
          "name": "owner",
          "type": "address"
        },
        {
          "indexed": true,
          "name": "spender",
          "type": "address"
        },
        {
          "indexed": false,
          "name": "value",
          "type": "uint256"
        },
        {
          "indexed": false,
          "name": "id",
          "type": "uint256"
        }
      ],
      "name": "ReturnStake",
      "type": "event"
    },
    {
      "anonymous": false,
      "inputs": [
        {
          "indexed": true,
          "name": "owner",
          "type": "address"
        },
        {
          "indexed": true,
          "name": "spender",
          "type": "address"
        },
        {
          "indexed": false,
          "name": "value",
          "type": "uint256"
        },
        {
          "indexed": false,
          "name": "id",
          "type": "uint256"
        }
      ],
      "name": "DestroyStake",
      "type": "event"
    },
    {
      "anonymous": false,
      "inputs": [
        {
          "indexed": true,
          "name": "burner",
          "type": "address"
        },
        {
          "indexed": false,
          "name": "value",
          "type": "uint256"
        }
      ],
      "name": "Burn",
      "type": "event"
    },
    {
      "anonymous": false,
      "inputs": [
        {
          "indexed": true,
          "name": "from",
          "type": "address"
        },
        {
          "indexed": true,
          "name": "to",
          "type": "address"
        },
        {
          "indexed": false,
          "name": "value",
          "type": "uint256"
        }
      ],
      "name": "Transfer",
      "type": "event"
    }
  ],
  "bytecode": "0x6060604052341561000f57600080fd5b6110558061001e6000396000f30060606040526004361061008e576000357c0100000000000000000000000000000000000000000000000000000000900463ffffffff16806341cacf6e1461009357806342966c68146100ed5780634ee2cd7e146101285780635410f3651461017e5780638fe9ee11146101d4578063981b24d01461022e578063a69e717014610265578063e940325614610303575b600080fd5b341561009e57600080fd5b6100d3600480803573ffffffffffffffffffffffffffffffffffffffff16906020019091908035906020019091905050610350565b604051808215151515815260200191505060405180910390f35b34156100f857600080fd5b61010e6004808035906020019091905050610503565b604051808215151515815260200191505060405180910390f35b341561013357600080fd5b610168600480803573ffffffffffffffffffffffffffffffffffffffff16906020019091908035906020019091905050610552565b6040518082815260200191505060405180910390f35b341561018957600080fd5b6101be600480803573ffffffffffffffffffffffffffffffffffffffff169060200190919080359060200190919050506105a3565b6040518082815260200191505060405180910390f35b34156101df57600080fd5b610214600480803573ffffffffffffffffffffffffffffffffffffffff169060200190919080359060200190919050506107cc565b604051808215151515815260200191505060405180910390f35b341561023957600080fd5b61024f600480803590602001909190505061093d565b6040518082815260200191505060405180910390f35b341561027057600080fd5b6102a5600480803573ffffffffffffffffffffffffffffffffffffffff16906020019091908035906020019091905050610951565b604051808460028111156102b557fe5b60ff1681526020018381526020018273ffffffffffffffffffffffffffffffffffffffff1673ffffffffffffffffffffffffffffffffffffffff168152602001935050505060405180910390f35b341561030e57600080fd5b61033a600480803573ffffffffffffffffffffffffffffffffffffffff16906020019091905050610a4d565b6040518082815260200191505060405180910390f35b60008082600260008673ffffffffffffffffffffffffffffffffffffffff1673ffffffffffffffffffffffffffffffffffffffff168152602001908152602001600020805490501115156103a357600080fd5b600260008573ffffffffffffffffffffffffffffffffffffffff1673ffffffffffffffffffffffffffffffffffffffff168152602001908152602001600020838154811015156103ef57fe5b906000526020600020906003020190503373ffffffffffffffffffffffffffffffffffffffff168160020160009054906101000a900473ffffffffffffffffffffffffffffffffffffffff1673ffffffffffffffffffffffffffffffffffffffff1614801561048557506000600281111561046657fe5b8160000160009054906101000a900460ff16600281111561048357fe5b145b80156104b957506001600281111561049957fe5b8160000160009054906101000a900460ff1660028111156104b657fe5b14155b15156104c457600080fd5b60028160000160006101000a81548160ff021916908360028111156104e557fe5b02179055506104f8848260010154610bb9565b600191505092915050565b60008060006105123343610552565b915061051d33610a4d565b9050836105338284610cac90919063ffffffff16565b1015151561054057600080fd5b61054984610cc5565b92505050919050565b600061059b6000808573ffffffffffffffffffffffffffffffffffffffff1673ffffffffffffffffffffffffffffffffffffffff16815260200190815260200160002083610cda565b905092915050565b6000806000806105b1610ef1565b600260003373ffffffffffffffffffffffffffffffffffffffff1673ffffffffffffffffffffffffffffffffffffffff1681526020019081526020016000208054905093506106008743610552565b925061060b87610a4d565b9150856106218385610cac90919063ffffffff16565b1015151561062e57600080fd5b6060604051908101604052806000600281111561064757fe5b81526020018781526020018873ffffffffffffffffffffffffffffffffffffffff168152509050600260003373ffffffffffffffffffffffffffffffffffffffff1673ffffffffffffffffffffffffffffffffffffffff16815260200190815260200160002080548060010182816106bf9190610f34565b9160005260206000209060030201600083909190915060008201518160000160006101000a81548160ff021916908360028111156106f957fe5b02179055506020820151816001015560408201518160020160006101000a81548173ffffffffffffffffffffffffffffffffffffffff021916908373ffffffffffffffffffffffffffffffffffffffff1602179055505050508673ffffffffffffffffffffffffffffffffffffffff163373ffffffffffffffffffffffffffffffffffffffff167fd7459829cfef162e0bf3dd919df788af5d79e82725cb5b33d7e72c6337d48b908887604051808381526020018281526020019250505060405180910390a38394505050505092915050565b60008082600260008673ffffffffffffffffffffffffffffffffffffffff1673ffffffffffffffffffffffffffffffffffffffff1681526020019081526020016000208054905011151561081f57600080fd5b600260008573ffffffffffffffffffffffffffffffffffffffff1673ffffffffffffffffffffffffffffffffffffffff1681526020019081526020016000208381548110151561086b57fe5b906000526020600020906003020190503373ffffffffffffffffffffffffffffffffffffffff168160020160009054906101000a900473ffffffffffffffffffffffffffffffffffffffff1673ffffffffffffffffffffffffffffffffffffffff161480156109015750600060028111156108e257fe5b8160000160009054906101000a900460ff1660028111156108ff57fe5b145b151561090c57600080fd5b60018160000160006101000a81548160ff0219169083600281111561092d57fe5b0217905550600191505092915050565b600061094a600183610cda565b9050919050565b60008060008084600260008873ffffffffffffffffffffffffffffffffffffffff1673ffffffffffffffffffffffffffffffffffffffff168152602001908152602001600020805490501115156109a757600080fd5b600260008773ffffffffffffffffffffffffffffffffffffffff1673ffffffffffffffffffffffffffffffffffffffff168152602001908152602001600020858154811015156109f357fe5b906000526020600020906003020190508060000160009054906101000a900460ff1681600101548260020160009054906101000a900473ffffffffffffffffffffffffffffffffffffffff16935093509350509250925092565b6000806000806000600260008773ffffffffffffffffffffffffffffffffffffffff1673ffffffffffffffffffffffffffffffffffffffff168152602001908152602001600020805490501415610aa75760009350610bb1565b60009250600091505b600260008673ffffffffffffffffffffffffffffffffffffffff1673ffffffffffffffffffffffffffffffffffffffff16815260200190815260200160002080549050821015610bad57600260008673ffffffffffffffffffffffffffffffffffffffff1673ffffffffffffffffffffffffffffffffffffffff16815260200190815260200160002082815481101515610b4657fe5b9060005260206000209060030201905060006002811115610b6357fe5b8160000160009054906101000a900460ff166002811115610b8057fe5b1415610ba057610b9d816001015484610e1790919063ffffffff16565b92505b8180600101925050610ab0565b8293505b505050919050565b600080610bc68443610552565b9150828210151515610bd757600080fd5b610be04361093d565b9050610c3b6000808673ffffffffffffffffffffffffffffffffffffffff1673ffffffffffffffffffffffffffffffffffffffff168152602001908152602001600020610c368585610cac90919063ffffffff16565b610e35565b610c586001610c538584610cac90919063ffffffff16565b610e35565b8373ffffffffffffffffffffffffffffffffffffffff167fcc16f5dbb4873280815c1ee09dbd06736cffcc184412cf7a71a0fdb75d397ca5846040518082815260200191505060405180910390a250505050565b6000828211151515610cba57fe5b818303905092915050565b6000610cd13383610bb9565b60019050919050565b600080600080600086805490501415610cf65760009350610e0e565b856001878054905003815481101515610d0b57fe5b90600052602060002090600202016000015485101515610d5357856001878054905003815481101515610d3a57fe5b9060005260206000209060020201600101549350610e0e565b856000815481101515610d6257fe5b906000526020600020906002020160000154851015610d845760009350610e0e565b60009250600186805490500391505b82821115610deb576002600184840101811515610dac57fe5b049050848682815481101515610dbe57fe5b906000526020600020906002020160000154111515610ddf57809250610de6565b6001810391505b610d93565b8583815481101515610df957fe5b90600052602060002090600202016001015493505b50505092915050565b6000808284019050838110151515610e2b57fe5b8091505092915050565b600080600084805490501480610e70575043846001868054905003815481101515610e5c57fe5b906000526020600020906002020160000154105b15610ebc5783848054809190600101610e899190610f66565b815481101515610e9557fe5b90600052602060002090600202019150438260000181905550828260010181905550610eeb565b836001858054905003815481101515610ed157fe5b906000526020600020906002020190508281600101819055505b50505050565b60606040519081016040528060006002811115610f0a57fe5b815260200160008152602001600073ffffffffffffffffffffffffffffffffffffffff1681525090565b815481835581811511610f6157600302816003028360005260206000209182019101610f609190610f98565b5b505050565b815481835581811511610f9357600202816002028360005260206000209182019101610f929190610ffa565b5b505050565b610ff791905b80821115610ff357600080820160006101000a81549060ff021916905560018201600090556002820160006101000a81549073ffffffffffffffffffffffffffffffffffffffff021916905550600301610f9e565b5090565b90565b61102691905b8082111561102257600080820160009055600182016000905550600201611000565b5090565b905600a165627a7a7230582024870eec225525b0afa92f0037d56caa0e9ef3815e08aa57dea7942326459d3e0029",
  "source": "pragma solidity ^0.4.18;\n\nimport './Trackable.sol';\nimport './Burnable.sol';\n\ncontract Stakeable is Trackable, Burnable {\n  event DepositStake(address indexed owner, address indexed spender, uint256 value, uint256 id);\n  event ReturnStake(address indexed owner, address indexed spender, uint256 value, uint256 id);\n  event DestroyStake(address indexed owner, address indexed spender, uint256 value, uint256 id);\n\n  enum StakeState { Deposited, Returned, Destroyed }\n\n  /// @dev `Stake` is the structure that attaches a state to a\n  ///  given value of stake\n  struct Stake {\n      // `fromBlock` is the block number that the value was generated from\n      StakeState state;\n      // `value` is the amount of tokens at a specific block number\n      uint256 value;\n      // `holder` is the address that holds the stake\n      address holder;\n  }\n\n  // `deposits` tracks current stakes that have been deposited\n  mapping (address => Stake[]) deposits;\n\n  /**\n   * @dev Burns a specific amount of tokens - override so we dont burn staked coins\n   * @param _value The amount of token to be burned.\n   */\n  function burn(uint256 _value) public returns (bool) {\n    var tokens = balanceOfAt(msg.sender, block.number);\n    var staked = totalDeposits(msg.sender);\n\n    require(tokens.sub(staked) >= _value);\n    return super.burn(_value);\n  }\n\n  /**\n   * @dev depositStake deposits a number of tokens with the holder\n   *\n   */\n  function depositStake(address _holder, uint256 _value) public returns (uint256) {\n    var stakeID = deposits[msg.sender].length;\n    var tokens = balanceOfAt(_holder, block.number);\n    var staked = totalDeposits(_holder);\n\n    require(tokens.sub(staked) >= _value);\n\n    var newStake = Stake({\n      state: StakeState.Deposited,\n      value: _value,\n      holder: _holder\n    });\n\n    deposits[msg.sender].push(newStake);\n\n    DepositStake(msg.sender, _holder, _value, stakeID);\n    return stakeID;\n  }\n\n  function checkStake(address _owner, uint256 stakeID) public view returns (StakeState, uint256, address) {\n    //Must be a possible stakeID\n    require(deposits[_owner].length > stakeID);\n    var deposit = deposits[_owner][stakeID];\n\n    return (deposit.state, deposit.value, deposit.holder);\n  }\n\n  /**\n   * @dev returnStake returns a number of tokens from the stake holder\n   *\n   */\n  function returnStake(address _owner, uint256 stakeID) public returns (bool) {\n    //Must be a possible stakeID\n    require(deposits[_owner].length > stakeID);\n    var theStake = deposits[_owner][stakeID];\n\n    //The sender must be the deposit holder of this stake\n    //and the stake must be in a deposited state\n    require(theStake.holder == msg.sender && theStake.state == StakeState.Deposited);\n\n    theStake.state = StakeState.Returned;\n    return true;\n  }\n\n  /**\n   * @dev returnStake returns a number of tokens from the stake holder\n   *\n   */\n  function destroyStake(address _owner, uint256 stakeID) public returns (bool) {\n    //Must be a possible stakeID\n    require(deposits[_owner].length > stakeID);\n    var theStake = deposits[_owner][stakeID];\n\n    //The sender must be the deposit holder of this stake\n    //and the stake must be in a deposited state\n    //and the stake must not be returned\n    require(theStake.holder == msg.sender\n      && theStake.state == StakeState.Deposited\n      && theStake.state != StakeState.Returned);\n\n    theStake.state = StakeState.Destroyed;\n    //run the burn command here\n    doBurn(_owner,theStake.value);\n    return true;\n  }\n\n  /**\n   * @dev Function to check the amount of tokens that an owner has staked\n   * @param _owner address The address which owns the funds.\n   * @return A uint256 specifying the amount of tokens that are staked.\n   */\n  function totalDeposits(address _owner) public view returns (uint256) {\n\n    //Has owner actually deposited before\n    if(deposits[_owner].length == 0) {\n      //nope\n      return 0;\n    }\n\n    uint256 staked = 0;\n\n    for(uint256 index = 0; index < deposits[_owner].length; index++) {\n      var deposit = deposits[_owner][index];\n      // only deposited stakes are held up\n      if(deposit.state == StakeState.Deposited) {\n        staked = staked.add(deposit.value);\n      }\n    }\n\n    return staked;\n  }\n}\n",
  "sourcePath": "/Users/nathan.rempel/ether/lotto/contracts/token/Stakeable.sol",
  "compiler": {
    "name": "solc",
    "version": "0.4.18+commit.9cf6e910.Emscripten.clang"
  },
  "schemaVersion": "1.0.1",
  "updatedAt": "2018-02-07T04:14:35.492Z"
}