{
  "contractName": "Trackable",
  "abi": [
    {
      "constant": true,
      "inputs": [
        {
          "name": "_owner",
          "type": "address"
        },
        {
          "name": "_blockNumber",
          "type": "uint256"
        }
      ],
      "name": "balanceOfAt",
      "outputs": [
        {
          "name": "",
          "type": "uint256"
        }
      ],
      "payable": false,
      "stateMutability": "view",
      "type": "function"
    },
    {
      "constant": true,
      "inputs": [
        {
          "name": "_blockNumber",
          "type": "uint256"
        }
      ],
      "name": "totalSupplyAt",
      "outputs": [
        {
          "name": "",
          "type": "uint256"
        }
      ],
      "payable": false,
      "stateMutability": "view",
      "type": "function"
    },
    {
      "anonymous": false,
      "inputs": [
        {
          "indexed": true,
          "name": "from",
          "type": "address"
        },
        {
          "indexed": true,
          "name": "to",
          "type": "address"
        },
        {
          "indexed": false,
          "name": "value",
          "type": "uint256"
        }
      ],
      "name": "Transfer",
      "type": "event"
    }
  ],
  "bytecode": "0x6060604052341561000f57600080fd5b6102ac8061001e6000396000f30060606040526004361061004c576000357c0100000000000000000000000000000000000000000000000000000000900463ffffffff1680634ee2cd7e14610051578063981b24d0146100a7575b600080fd5b341561005c57600080fd5b610091600480803573ffffffffffffffffffffffffffffffffffffffff169060200190919080359060200190919050506100de565b6040518082815260200191505060405180910390f35b34156100b257600080fd5b6100c8600480803590602001909190505061012f565b6040518082815260200191505060405180910390f35b60006101276000808573ffffffffffffffffffffffffffffffffffffffff1673ffffffffffffffffffffffffffffffffffffffff16815260200190815260200160002083610143565b905092915050565b600061013c600183610143565b9050919050565b60008060008060008680549050141561015f5760009350610277565b85600187805490500381548110151561017457fe5b906000526020600020906002020160000154851015156101bc578560018780549050038154811015156101a357fe5b9060005260206000209060020201600101549350610277565b8560008154811015156101cb57fe5b9060005260206000209060020201600001548510156101ed5760009350610277565b60009250600186805490500391505b8282111561025457600260018484010181151561021557fe5b04905084868281548110151561022757fe5b9060005260206000209060020201600001541115156102485780925061024f565b6001810391505b6101fc565b858381548110151561026257fe5b90600052602060002090600202016001015493505b505050929150505600a165627a7a723058203be662c8291a4558b86c2c2bed9b96f4e9c983139d430be67da85780ccbcc1cb0029",
  "source": "pragma solidity ^0.4.18;\n\nimport '../common/SafeMath.sol';\n\ncontract Trackable {\n  using SafeMath for uint256;\n  event Transfer(address indexed from, address indexed to, uint256 value);\n\n  /// @dev `Checkpoint` is the structure that attaches a block number to a\n  ///  given value, the block number attached is the one that last changed the\n  ///  value\n  struct  Checkpoint {\n      // `fromBlock` is the block number that the value was generated from\n      uint256 fromBlock;\n      // `value` is the amount of tokens at a specific block number\n      uint256 value;\n  }\n\n  // `balances` is the map that tracks the balance of each address, in this\n  //  contract when the balance changes the block number that the change\n  //  occurred is also included in the map\n  mapping (address => Checkpoint[]) balances;\n\n\n  // Tracks the history of the `totalSupply` of the token\n  Checkpoint[] totalSupplyHistory;\n\n  /// @dev This is the actual transfer function in the token contract, it can\n  ///  only be called by other functions in this contract.\n  /// @param _from The address holding the tokens being transferred\n  /// @param _to The address of the recipient\n  /// @param _amount The amount of tokens to be transferred\n  /// @return True if the transfer was successful\n  function doTransfer(address _from, address _to, uint256 _amount\n  ) internal {\n\n         if (_amount == 0) {\n             Transfer(_from, _to, _amount);    // Follow the spec to louch the event when transfer 0\n             return;\n         }\n\n         // Do not allow transfer to 0x0 or the token contract itself\n         require((_to != 0) && (_to != address(this)));\n\n         // If the amount being transfered is more than the balance of the\n         //  account the transfer throws\n         var previousBalanceFrom = balanceOfAt(_from, block.number);\n\n         require(previousBalanceFrom >= _amount);\n\n         // First update the balance array with the new value for the address\n         //  sending the tokens\n         updateValueAtNow(balances[_from], previousBalanceFrom.sub(_amount));\n\n         // Then update the balance array with the new value for the address\n         //  receiving the tokens\n         var previousBalanceTo = balanceOfAt(_to, block.number);\n         require(previousBalanceTo.add(_amount) >= previousBalanceTo); // Check for overflow\n         updateValueAtNow(balances[_to], previousBalanceTo.add(_amount));\n\n         // An event to make the transfer easy to find on the blockchain\n         Transfer(_from, _to, _amount);\n  }\n\n    ////////////////\n    // Query balance and totalSupply in History\n    ////////////////\n\n    /// @dev Queries the balance of `_owner` at a specific `_blockNumber`\n    /// @param _owner The address from which the balance will be retrieved\n    /// @param _blockNumber The block number when the balance is queried\n    /// @return The balance at `_blockNumber`\n    function balanceOfAt(address _owner, uint _blockNumber) public view\n        returns (uint) {\n          return getValueAt(balances[_owner], _blockNumber);\n    }\n\n    /// @notice Total amount of tokens at a specific `_blockNumber`.\n    /// @param _blockNumber The block number when the totalSupply is queried\n    /// @return The total amount of tokens at `_blockNumber`\n    function totalSupplyAt(uint _blockNumber) public view returns(uint) {\n          return getValueAt(totalSupplyHistory, _blockNumber);\n    }\n\n    ////////////////\n    // Internal helper functions to query and set a value in a snapshot array\n    ////////////////\n\n    /// @dev `getValueAt` retrieves the number of tokens at a given block number\n    /// @param checkpoints The history of values being queried\n    /// @param _block The block number to retrieve the value at\n    /// @return The number of tokens being queried\n    function getValueAt(Checkpoint[] storage checkpoints, uint _block\n    ) view internal returns (uint256) {\n        if (checkpoints.length == 0) return 0;\n\n        // Shortcut for the actual value\n        if (_block >= checkpoints[checkpoints.length-1].fromBlock)\n            return checkpoints[checkpoints.length-1].value;\n        if (_block < checkpoints[0].fromBlock) return 0;\n\n        // Binary search of the value in the array\n        uint min = 0;\n        uint max = checkpoints.length-1;\n        while (max > min) {\n            uint mid = (max + min + 1)/ 2;\n            if (checkpoints[mid].fromBlock<=_block) {\n                min = mid;\n            } else {\n                max = mid-1;\n            }\n        }\n        return checkpoints[min].value;\n    }\n\n    /// @dev `updateValueAtNow` used to update the `balances` map and the\n    ///  `totalSupplyHistory`\n    /// @param checkpoints The history of data being updated\n    /// @param _value The new number of tokens\n    function updateValueAtNow(Checkpoint[] storage checkpoints, uint256 _value\n    ) internal  {\n        if ((checkpoints.length == 0)\n        || (checkpoints[checkpoints.length -1].fromBlock < block.number)) {\n               Checkpoint storage newCheckPoint = checkpoints[ checkpoints.length++ ];\n               newCheckPoint.fromBlock =  uint256(block.number);\n               newCheckPoint.value = uint256(_value);\n           } else {\n               Checkpoint storage oldCheckPoint = checkpoints[checkpoints.length-1];\n               oldCheckPoint.value = uint256(_value);\n           }\n    }\n}\n",
  "sourcePath": "/Users/nathan.rempel/ether/lotto/contracts/token/Trackable.sol",
  "compiler": {
    "name": "solc",
    "version": "0.4.18+commit.9cf6e910.Emscripten.clang"
  },
  "schemaVersion": "1.0.1",
  "updatedAt": "2018-02-12T00:57:17.325Z"
}