{
  "contractName": "TrackableToken",
  "abi": [
    {
      "constant": true,
      "inputs": [],
      "name": "name",
      "outputs": [
        {
          "name": "",
          "type": "string"
        }
      ],
      "payable": false,
      "stateMutability": "view",
      "type": "function"
    },
    {
      "constant": false,
      "inputs": [
        {
          "name": "_spender",
          "type": "address"
        },
        {
          "name": "_value",
          "type": "uint256"
        }
      ],
      "name": "approve",
      "outputs": [
        {
          "name": "",
          "type": "bool"
        }
      ],
      "payable": false,
      "stateMutability": "nonpayable",
      "type": "function"
    },
    {
      "constant": true,
      "inputs": [],
      "name": "totalSupply",
      "outputs": [
        {
          "name": "",
          "type": "uint256"
        }
      ],
      "payable": false,
      "stateMutability": "view",
      "type": "function"
    },
    {
      "constant": false,
      "inputs": [
        {
          "name": "_from",
          "type": "address"
        },
        {
          "name": "_to",
          "type": "address"
        },
        {
          "name": "_value",
          "type": "uint256"
        }
      ],
      "name": "transferFrom",
      "outputs": [
        {
          "name": "",
          "type": "bool"
        }
      ],
      "payable": false,
      "stateMutability": "nonpayable",
      "type": "function"
    },
    {
      "constant": true,
      "inputs": [],
      "name": "decimals",
      "outputs": [
        {
          "name": "",
          "type": "uint8"
        }
      ],
      "payable": false,
      "stateMutability": "view",
      "type": "function"
    },
    {
      "constant": false,
      "inputs": [
        {
          "name": "_recipient",
          "type": "address"
        },
        {
          "name": "_value",
          "type": "uint256"
        }
      ],
      "name": "mint",
      "outputs": [],
      "payable": false,
      "stateMutability": "nonpayable",
      "type": "function"
    },
    {
      "constant": false,
      "inputs": [
        {
          "name": "_owner",
          "type": "address"
        },
        {
          "name": "stakeID",
          "type": "uint256"
        }
      ],
      "name": "destroyStake",
      "outputs": [
        {
          "name": "",
          "type": "bool"
        }
      ],
      "payable": false,
      "stateMutability": "nonpayable",
      "type": "function"
    },
    {
      "constant": false,
      "inputs": [
        {
          "name": "_value",
          "type": "uint256"
        }
      ],
      "name": "burn",
      "outputs": [
        {
          "name": "",
          "type": "bool"
        }
      ],
      "payable": false,
      "stateMutability": "nonpayable",
      "type": "function"
    },
    {
      "constant": true,
      "inputs": [
        {
          "name": "_owner",
          "type": "address"
        },
        {
          "name": "_blockNumber",
          "type": "uint256"
        }
      ],
      "name": "balanceOfAt",
      "outputs": [
        {
          "name": "",
          "type": "uint256"
        }
      ],
      "payable": false,
      "stateMutability": "view",
      "type": "function"
    },
    {
      "constant": false,
      "inputs": [
        {
          "name": "_holder",
          "type": "address"
        },
        {
          "name": "_value",
          "type": "uint256"
        }
      ],
      "name": "depositStake",
      "outputs": [
        {
          "name": "",
          "type": "uint256"
        }
      ],
      "payable": false,
      "stateMutability": "nonpayable",
      "type": "function"
    },
    {
      "constant": true,
      "inputs": [
        {
          "name": "_owner",
          "type": "address"
        }
      ],
      "name": "freeBalanceOf",
      "outputs": [
        {
          "name": "balance",
          "type": "uint256"
        }
      ],
      "payable": false,
      "stateMutability": "view",
      "type": "function"
    },
    {
      "constant": false,
      "inputs": [
        {
          "name": "_spender",
          "type": "address"
        },
        {
          "name": "_subtractedValue",
          "type": "uint256"
        }
      ],
      "name": "decreaseApproval",
      "outputs": [
        {
          "name": "",
          "type": "bool"
        }
      ],
      "payable": false,
      "stateMutability": "nonpayable",
      "type": "function"
    },
    {
      "constant": true,
      "inputs": [
        {
          "name": "_owner",
          "type": "address"
        }
      ],
      "name": "balanceOf",
      "outputs": [
        {
          "name": "balance",
          "type": "uint256"
        }
      ],
      "payable": false,
      "stateMutability": "view",
      "type": "function"
    },
    {
      "constant": true,
      "inputs": [],
      "name": "owner",
      "outputs": [
        {
          "name": "",
          "type": "address"
        }
      ],
      "payable": false,
      "stateMutability": "view",
      "type": "function"
    },
    {
      "constant": false,
      "inputs": [
        {
          "name": "_owner",
          "type": "address"
        },
        {
          "name": "stakeID",
          "type": "uint256"
        }
      ],
      "name": "returnStake",
      "outputs": [
        {
          "name": "",
          "type": "bool"
        }
      ],
      "payable": false,
      "stateMutability": "nonpayable",
      "type": "function"
    },
    {
      "constant": true,
      "inputs": [],
      "name": "symbol",
      "outputs": [
        {
          "name": "",
          "type": "string"
        }
      ],
      "payable": false,
      "stateMutability": "view",
      "type": "function"
    },
    {
      "constant": true,
      "inputs": [
        {
          "name": "_blockNumber",
          "type": "uint256"
        }
      ],
      "name": "totalSupplyAt",
      "outputs": [
        {
          "name": "",
          "type": "uint256"
        }
      ],
      "payable": false,
      "stateMutability": "view",
      "type": "function"
    },
    {
      "constant": true,
      "inputs": [
        {
          "name": "_owner",
          "type": "address"
        },
        {
          "name": "stakeID",
          "type": "uint256"
        }
      ],
      "name": "checkStake",
      "outputs": [
        {
          "name": "",
          "type": "uint8"
        },
        {
          "name": "",
          "type": "uint256"
        },
        {
          "name": "",
          "type": "address"
        }
      ],
      "payable": false,
      "stateMutability": "view",
      "type": "function"
    },
    {
      "constant": false,
      "inputs": [
        {
          "name": "_to",
          "type": "address"
        },
        {
          "name": "_value",
          "type": "uint256"
        }
      ],
      "name": "transfer",
      "outputs": [
        {
          "name": "",
          "type": "bool"
        }
      ],
      "payable": false,
      "stateMutability": "nonpayable",
      "type": "function"
    },
    {
      "constant": false,
      "inputs": [
        {
          "name": "_spender",
          "type": "address"
        },
        {
          "name": "_addedValue",
          "type": "uint256"
        }
      ],
      "name": "increaseApproval",
      "outputs": [
        {
          "name": "",
          "type": "bool"
        }
      ],
      "payable": false,
      "stateMutability": "nonpayable",
      "type": "function"
    },
    {
      "constant": true,
      "inputs": [
        {
          "name": "_owner",
          "type": "address"
        },
        {
          "name": "_spender",
          "type": "address"
        }
      ],
      "name": "allowance",
      "outputs": [
        {
          "name": "",
          "type": "uint256"
        }
      ],
      "payable": false,
      "stateMutability": "view",
      "type": "function"
    },
    {
      "constant": true,
      "inputs": [
        {
          "name": "_owner",
          "type": "address"
        }
      ],
      "name": "totalDeposits",
      "outputs": [
        {
          "name": "",
          "type": "uint256"
        }
      ],
      "payable": false,
      "stateMutability": "view",
      "type": "function"
    },
    {
      "constant": false,
      "inputs": [
        {
          "name": "newOwner",
          "type": "address"
        }
      ],
      "name": "transferOwnership",
      "outputs": [],
      "payable": false,
      "stateMutability": "nonpayable",
      "type": "function"
    },
    {
      "anonymous": false,
      "inputs": [
        {
          "indexed": true,
          "name": "recipient",
          "type": "address"
        },
        {
          "indexed": false,
          "name": "value",
          "type": "uint256"
        }
      ],
      "name": "Mint",
      "type": "event"
    },
    {
      "anonymous": false,
      "inputs": [
        {
          "indexed": true,
          "name": "previousOwner",
          "type": "address"
        },
        {
          "indexed": true,
          "name": "newOwner",
          "type": "address"
        }
      ],
      "name": "OwnershipTransferred",
      "type": "event"
    },
    {
      "anonymous": false,
      "inputs": [
        {
          "indexed": true,
          "name": "owner",
          "type": "address"
        },
        {
          "indexed": true,
          "name": "spender",
          "type": "address"
        },
        {
          "indexed": false,
          "name": "value",
          "type": "uint256"
        },
        {
          "indexed": false,
          "name": "id",
          "type": "uint256"
        }
      ],
      "name": "DepositStake",
      "type": "event"
    },
    {
      "anonymous": false,
      "inputs": [
        {
          "indexed": true,
          "name": "owner",
          "type": "address"
        },
        {
          "indexed": true,
          "name": "spender",
          "type": "address"
        },
        {
          "indexed": false,
          "name": "value",
          "type": "uint256"
        },
        {
          "indexed": false,
          "name": "id",
          "type": "uint256"
        }
      ],
      "name": "ReturnStake",
      "type": "event"
    },
    {
      "anonymous": false,
      "inputs": [
        {
          "indexed": true,
          "name": "owner",
          "type": "address"
        },
        {
          "indexed": true,
          "name": "spender",
          "type": "address"
        },
        {
          "indexed": false,
          "name": "value",
          "type": "uint256"
        },
        {
          "indexed": false,
          "name": "id",
          "type": "uint256"
        }
      ],
      "name": "DestroyStake",
      "type": "event"
    },
    {
      "anonymous": false,
      "inputs": [
        {
          "indexed": true,
          "name": "burner",
          "type": "address"
        },
        {
          "indexed": false,
          "name": "value",
          "type": "uint256"
        }
      ],
      "name": "Burn",
      "type": "event"
    },
    {
      "anonymous": false,
      "inputs": [
        {
          "indexed": true,
          "name": "owner",
          "type": "address"
        },
        {
          "indexed": true,
          "name": "spender",
          "type": "address"
        },
        {
          "indexed": false,
          "name": "value",
          "type": "uint256"
        }
      ],
      "name": "Approval",
      "type": "event"
    },
    {
      "anonymous": false,
      "inputs": [
        {
          "indexed": true,
          "name": "from",
          "type": "address"
        },
        {
          "indexed": true,
          "name": "to",
          "type": "address"
        },
        {
          "indexed": false,
          "name": "value",
          "type": "uint256"
        }
      ],
      "name": "Transfer",
      "type": "event"
    }
  ],
  "bytecode": "0x606060405233600460006101000a81548173ffffffffffffffffffffffffffffffffffffffff021916908373ffffffffffffffffffffffffffffffffffffffff1602179055506124c8806100546000396000f300606060405260043610610133576000357c0100000000000000000000000000000000000000000000000000000000900463ffffffff16806306fdde0314610138578063095ea7b3146101c657806318160ddd1461022057806323b872dd14610249578063313ce567146102c257806340c10f19146102f157806341cacf6e1461033357806342966c681461038d5780634ee2cd7e146103c85780635410f3651461041e578063543e99541461047457806366188463146104c157806370a082311461051b5780638da5cb5b146105685780638fe9ee11146105bd57806395d89b4114610617578063981b24d0146106a5578063a69e7170146106dc578063a9059cbb1461077a578063d73dd623146107d4578063dd62ed3e1461082e578063e94032561461089a578063f2fde38b146108e7575b600080fd5b341561014357600080fd5b61014b610920565b6040518080602001828103825283818151815260200191508051906020019080838360005b8381101561018b578082015181840152602081019050610170565b50505050905090810190601f1680156101b85780820380516001836020036101000a031916815260200191505b509250505060405180910390f35b34156101d157600080fd5b610206600480803573ffffffffffffffffffffffffffffffffffffffff169060200190919080359060200190919050506109be565b604051808215151515815260200191505060405180910390f35b341561022b57600080fd5b610233610ab0565b6040518082815260200191505060405180910390f35b341561025457600080fd5b6102a8600480803573ffffffffffffffffffffffffffffffffffffffff1690602001909190803573ffffffffffffffffffffffffffffffffffffffff16906020019091908035906020019091905050610ac0565b604051808215151515815260200191505060405180910390f35b34156102cd57600080fd5b6102d5610c89565b604051808260ff1660ff16815260200191505060405180910390f35b34156102fc57600080fd5b610331600480803573ffffffffffffffffffffffffffffffffffffffff16906020019091908035906020019091905050610c9c565b005b341561033e57600080fd5b610373600480803573ffffffffffffffffffffffffffffffffffffffff16906020019091908035906020019091905050610d06565b604051808215151515815260200191505060405180910390f35b341561039857600080fd5b6103ae6004808035906020019091905050610eb9565b604051808215151515815260200191505060405180910390f35b34156103d357600080fd5b610408600480803573ffffffffffffffffffffffffffffffffffffffff16906020019091908035906020019091905050610f08565b6040518082815260200191505060405180910390f35b341561042957600080fd5b61045e600480803573ffffffffffffffffffffffffffffffffffffffff16906020019091908035906020019091905050610f59565b6040518082815260200191505060405180910390f35b341561047f57600080fd5b6104ab600480803573ffffffffffffffffffffffffffffffffffffffff16906020019091905050611182565b6040518082815260200191505060405180910390f35b34156104cc57600080fd5b610501600480803573ffffffffffffffffffffffffffffffffffffffff169060200190919080359060200190919050506111af565b604051808215151515815260200191505060405180910390f35b341561052657600080fd5b610552600480803573ffffffffffffffffffffffffffffffffffffffff16906020019091905050611440565b6040518082815260200191505060405180910390f35b341561057357600080fd5b61057b611453565b604051808273ffffffffffffffffffffffffffffffffffffffff1673ffffffffffffffffffffffffffffffffffffffff16815260200191505060405180910390f35b34156105c857600080fd5b6105fd600480803573ffffffffffffffffffffffffffffffffffffffff16906020019091908035906020019091905050611479565b604051808215151515815260200191505060405180910390f35b341561062257600080fd5b61062a6115ea565b6040518080602001828103825283818151815260200191508051906020019080838360005b8381101561066a57808201518184015260208101905061064f565b50505050905090810190601f1680156106975780820380516001836020036101000a031916815260200191505b509250505060405180910390f35b34156106b057600080fd5b6106c66004808035906020019091905050611688565b6040518082815260200191505060405180910390f35b34156106e757600080fd5b61071c600480803573ffffffffffffffffffffffffffffffffffffffff1690602001909190803590602001909190505061169c565b6040518084600281111561072c57fe5b60ff1681526020018381526020018273ffffffffffffffffffffffffffffffffffffffff1673ffffffffffffffffffffffffffffffffffffffff168152602001935050505060405180910390f35b341561078557600080fd5b6107ba600480803573ffffffffffffffffffffffffffffffffffffffff16906020019091908035906020019091905050611798565b604051808215151515815260200191505060405180910390f35b34156107df57600080fd5b610814600480803573ffffffffffffffffffffffffffffffffffffffff169060200190919080359060200190919050506117c6565b604051808215151515815260200191505060405180910390f35b341561083957600080fd5b610884600480803573ffffffffffffffffffffffffffffffffffffffff1690602001909190803573ffffffffffffffffffffffffffffffffffffffff169060200190919050506119c2565b6040518082815260200191505060405180910390f35b34156108a557600080fd5b6108d1600480803573ffffffffffffffffffffffffffffffffffffffff16906020019091905050611a49565b6040518082815260200191505060405180910390f35b34156108f257600080fd5b61091e600480803573ffffffffffffffffffffffffffffffffffffffff16906020019091905050611bb5565b005b60058054600181600116156101000203166002900480601f0160208091040260200160405190810160405280929190818152602001828054600181600116156101000203166002900480156109b65780601f1061098b576101008083540402835291602001916109b6565b820191906000526020600020905b81548152906001019060200180831161099957829003601f168201915b505050505081565b600081600260003373ffffffffffffffffffffffffffffffffffffffff1673ffffffffffffffffffffffffffffffffffffffff16815260200190815260200160002060008573ffffffffffffffffffffffffffffffffffffffff1673ffffffffffffffffffffffffffffffffffffffff168152602001908152602001600020819055508273ffffffffffffffffffffffffffffffffffffffff163373ffffffffffffffffffffffffffffffffffffffff167f8c5be1e5ebec7d5bd14f71427d1e84f3dd0314c0f7b2291e5b200ac8c7c3b925846040518082815260200191505060405180910390a36001905092915050565b6000610abb43611688565b905090565b6000600260008573ffffffffffffffffffffffffffffffffffffffff1673ffffffffffffffffffffffffffffffffffffffff16815260200190815260200160002060003373ffffffffffffffffffffffffffffffffffffffff1673ffffffffffffffffffffffffffffffffffffffff168152602001908152602001600020548211151515610b4d57600080fd5b81610b5785611182565b10151515610b6457600080fd5b610bf382600260008773ffffffffffffffffffffffffffffffffffffffff1673ffffffffffffffffffffffffffffffffffffffff16815260200190815260200160002060003373ffffffffffffffffffffffffffffffffffffffff1673ffffffffffffffffffffffffffffffffffffffff16815260200190815260200160002054611d0d90919063ffffffff16565b600260008673ffffffffffffffffffffffffffffffffffffffff1673ffffffffffffffffffffffffffffffffffffffff16815260200190815260200160002060003373ffffffffffffffffffffffffffffffffffffffff1673ffffffffffffffffffffffffffffffffffffffff16815260200190815260200160002081905550610c7e848484611d26565b600190509392505050565b600660009054906101000a900460ff1681565b600460009054906101000a900473ffffffffffffffffffffffffffffffffffffffff1673ffffffffffffffffffffffffffffffffffffffff163373ffffffffffffffffffffffffffffffffffffffff16141515610cf857600080fd5b610d028282611f61565b5050565b60008082600360008673ffffffffffffffffffffffffffffffffffffffff1673ffffffffffffffffffffffffffffffffffffffff16815260200190815260200160002080549050111515610d5957600080fd5b600360008573ffffffffffffffffffffffffffffffffffffffff1673ffffffffffffffffffffffffffffffffffffffff16815260200190815260200160002083815481101515610da557fe5b906000526020600020906003020190503373ffffffffffffffffffffffffffffffffffffffff168160020160009054906101000a900473ffffffffffffffffffffffffffffffffffffffff1673ffffffffffffffffffffffffffffffffffffffff16148015610e3b575060006002811115610e1c57fe5b8160000160009054906101000a900460ff166002811115610e3957fe5b145b8015610e6f575060016002811115610e4f57fe5b8160000160009054906101000a900460ff166002811115610e6c57fe5b14155b1515610e7a57600080fd5b60028160000160006101000a81548160ff02191690836002811115610e9b57fe5b0217905550610eae848260010154612045565b600191505092915050565b6000806000610ec83343610f08565b9150610ed333611a49565b905083610ee98284611d0d90919063ffffffff16565b10151515610ef657600080fd5b610eff84612138565b92505050919050565b6000610f516000808573ffffffffffffffffffffffffffffffffffffffff1673ffffffffffffffffffffffffffffffffffffffff1681526020019081526020016000208361214d565b905092915050565b600080600080610f67612364565b600360003373ffffffffffffffffffffffffffffffffffffffff1673ffffffffffffffffffffffffffffffffffffffff168152602001908152602001600020805490509350610fb68743610f08565b9250610fc187611a49565b915085610fd78385611d0d90919063ffffffff16565b10151515610fe457600080fd5b60606040519081016040528060006002811115610ffd57fe5b81526020018781526020018873ffffffffffffffffffffffffffffffffffffffff168152509050600360003373ffffffffffffffffffffffffffffffffffffffff1673ffffffffffffffffffffffffffffffffffffffff168152602001908152602001600020805480600101828161107591906123a7565b9160005260206000209060030201600083909190915060008201518160000160006101000a81548160ff021916908360028111156110af57fe5b02179055506020820151816001015560408201518160020160006101000a81548173ffffffffffffffffffffffffffffffffffffffff021916908373ffffffffffffffffffffffffffffffffffffffff1602179055505050508673ffffffffffffffffffffffffffffffffffffffff163373ffffffffffffffffffffffffffffffffffffffff167fd7459829cfef162e0bf3dd919df788af5d79e82725cb5b33d7e72c6337d48b908887604051808381526020018281526020019250505060405180910390a38394505050505092915050565b60006111a861119083611a49565b61119a8443610f08565b611d0d90919063ffffffff16565b9050919050565b600080600260003373ffffffffffffffffffffffffffffffffffffffff1673ffffffffffffffffffffffffffffffffffffffff16815260200190815260200160002060008573ffffffffffffffffffffffffffffffffffffffff1673ffffffffffffffffffffffffffffffffffffffff168152602001908152602001600020549050808311156112c0576000600260003373ffffffffffffffffffffffffffffffffffffffff1673ffffffffffffffffffffffffffffffffffffffff16815260200190815260200160002060008673ffffffffffffffffffffffffffffffffffffffff1673ffffffffffffffffffffffffffffffffffffffff16815260200190815260200160002081905550611354565b6112d38382611d0d90919063ffffffff16565b600260003373ffffffffffffffffffffffffffffffffffffffff1673ffffffffffffffffffffffffffffffffffffffff16815260200190815260200160002060008673ffffffffffffffffffffffffffffffffffffffff1673ffffffffffffffffffffffffffffffffffffffff168152602001908152602001600020819055505b8373ffffffffffffffffffffffffffffffffffffffff163373ffffffffffffffffffffffffffffffffffffffff167f8c5be1e5ebec7d5bd14f71427d1e84f3dd0314c0f7b2291e5b200ac8c7c3b925600260003373ffffffffffffffffffffffffffffffffffffffff1673ffffffffffffffffffffffffffffffffffffffff16815260200190815260200160002060008873ffffffffffffffffffffffffffffffffffffffff1673ffffffffffffffffffffffffffffffffffffffff168152602001908152602001600020546040518082815260200191505060405180910390a3600191505092915050565b600061144c8243610f08565b9050919050565b600460009054906101000a900473ffffffffffffffffffffffffffffffffffffffff1681565b60008082600360008673ffffffffffffffffffffffffffffffffffffffff1673ffffffffffffffffffffffffffffffffffffffff168152602001908152602001600020805490501115156114cc57600080fd5b600360008573ffffffffffffffffffffffffffffffffffffffff1673ffffffffffffffffffffffffffffffffffffffff1681526020019081526020016000208381548110151561151857fe5b906000526020600020906003020190503373ffffffffffffffffffffffffffffffffffffffff168160020160009054906101000a900473ffffffffffffffffffffffffffffffffffffffff1673ffffffffffffffffffffffffffffffffffffffff161480156115ae57506000600281111561158f57fe5b8160000160009054906101000a900460ff1660028111156115ac57fe5b145b15156115b957600080fd5b60018160000160006101000a81548160ff021916908360028111156115da57fe5b0217905550600191505092915050565b60078054600181600116156101000203166002900480601f0160208091040260200160405190810160405280929190818152602001828054600181600116156101000203166002900480156116805780601f1061165557610100808354040283529160200191611680565b820191906000526020600020905b81548152906001019060200180831161166357829003601f168201915b505050505081565b600061169560018361214d565b9050919050565b60008060008084600360008873ffffffffffffffffffffffffffffffffffffffff1673ffffffffffffffffffffffffffffffffffffffff168152602001908152602001600020805490501115156116f257600080fd5b600360008773ffffffffffffffffffffffffffffffffffffffff1673ffffffffffffffffffffffffffffffffffffffff1681526020019081526020016000208581548110151561173e57fe5b906000526020600020906003020190508060000160009054906101000a900460ff1681600101548260020160009054906101000a900473ffffffffffffffffffffffffffffffffffffffff16935093509350509250925092565b6000816117a433611182565b101515156117b157600080fd5b6117bc338484611d26565b6001905092915050565b600061185782600260003373ffffffffffffffffffffffffffffffffffffffff1673ffffffffffffffffffffffffffffffffffffffff16815260200190815260200160002060008673ffffffffffffffffffffffffffffffffffffffff1673ffffffffffffffffffffffffffffffffffffffff1681526020019081526020016000205461228a90919063ffffffff16565b600260003373ffffffffffffffffffffffffffffffffffffffff1673ffffffffffffffffffffffffffffffffffffffff16815260200190815260200160002060008573ffffffffffffffffffffffffffffffffffffffff1673ffffffffffffffffffffffffffffffffffffffff168152602001908152602001600020819055508273ffffffffffffffffffffffffffffffffffffffff163373ffffffffffffffffffffffffffffffffffffffff167f8c5be1e5ebec7d5bd14f71427d1e84f3dd0314c0f7b2291e5b200ac8c7c3b925600260003373ffffffffffffffffffffffffffffffffffffffff1673ffffffffffffffffffffffffffffffffffffffff16815260200190815260200160002060008773ffffffffffffffffffffffffffffffffffffffff1673ffffffffffffffffffffffffffffffffffffffff168152602001908152602001600020546040518082815260200191505060405180910390a36001905092915050565b6000600260008473ffffffffffffffffffffffffffffffffffffffff1673ffffffffffffffffffffffffffffffffffffffff16815260200190815260200160002060008373ffffffffffffffffffffffffffffffffffffffff1673ffffffffffffffffffffffffffffffffffffffff16815260200190815260200160002054905092915050565b6000806000806000600360008773ffffffffffffffffffffffffffffffffffffffff1673ffffffffffffffffffffffffffffffffffffffff168152602001908152602001600020805490501415611aa35760009350611bad565b60009250600091505b600360008673ffffffffffffffffffffffffffffffffffffffff1673ffffffffffffffffffffffffffffffffffffffff16815260200190815260200160002080549050821015611ba957600360008673ffffffffffffffffffffffffffffffffffffffff1673ffffffffffffffffffffffffffffffffffffffff16815260200190815260200160002082815481101515611b4257fe5b9060005260206000209060030201905060006002811115611b5f57fe5b8160000160009054906101000a900460ff166002811115611b7c57fe5b1415611b9c57611b9981600101548461228a90919063ffffffff16565b92505b8180600101925050611aac565b8293505b505050919050565b600460009054906101000a900473ffffffffffffffffffffffffffffffffffffffff1673ffffffffffffffffffffffffffffffffffffffff163373ffffffffffffffffffffffffffffffffffffffff16141515611c1157600080fd5b600073ffffffffffffffffffffffffffffffffffffffff168173ffffffffffffffffffffffffffffffffffffffff1614151515611c4d57600080fd5b8073ffffffffffffffffffffffffffffffffffffffff16600460009054906101000a900473ffffffffffffffffffffffffffffffffffffffff1673ffffffffffffffffffffffffffffffffffffffff167f8be0079c531659141344cd1fd0a4f28419497f9722a3daafe3b4186f6b6457e060405160405180910390a380600460006101000a81548173ffffffffffffffffffffffffffffffffffffffff021916908373ffffffffffffffffffffffffffffffffffffffff16021790555050565b6000828211151515611d1b57fe5b818303905092915050565b6000806000831415611d9c578373ffffffffffffffffffffffffffffffffffffffff168573ffffffffffffffffffffffffffffffffffffffff167fddf252ad1be2c89b69c2b068fc378daa952ba7f163c4a11628f55a4df523b3ef856040518082815260200191505060405180910390a3611f5a565b60008473ffffffffffffffffffffffffffffffffffffffff1614158015611def57503073ffffffffffffffffffffffffffffffffffffffff168473ffffffffffffffffffffffffffffffffffffffff1614155b1515611dfa57600080fd5b611e048543610f08565b9150828210151515611e1557600080fd5b611e6e6000808773ffffffffffffffffffffffffffffffffffffffff1673ffffffffffffffffffffffffffffffffffffffff168152602001908152602001600020611e698585611d0d90919063ffffffff16565b6122a8565b611e788443610f08565b905080611e8e848361228a90919063ffffffff16565b10151515611e9b57600080fd5b611ef46000808673ffffffffffffffffffffffffffffffffffffffff1673ffffffffffffffffffffffffffffffffffffffff168152602001908152602001600020611eef858461228a90919063ffffffff16565b6122a8565b8373ffffffffffffffffffffffffffffffffffffffff168573ffffffffffffffffffffffffffffffffffffffff167fddf252ad1be2c89b69c2b068fc378daa952ba7f163c4a11628f55a4df523b3ef856040518082815260200191505060405180910390a35b5050505050565b600080611f6e8443610f08565b9150611f7943611688565b9050611fd46000808673ffffffffffffffffffffffffffffffffffffffff1673ffffffffffffffffffffffffffffffffffffffff168152602001908152602001600020611fcf858561228a90919063ffffffff16565b6122a8565b611ff16001611fec858461228a90919063ffffffff16565b6122a8565b8373ffffffffffffffffffffffffffffffffffffffff167f0f6798a560793a54c3bcfe86a93cde1e73087d944c0ea20544137d4121396885846040518082815260200191505060405180910390a250505050565b6000806120528443610f08565b915082821015151561206357600080fd5b61206c43611688565b90506120c76000808673ffffffffffffffffffffffffffffffffffffffff1673ffffffffffffffffffffffffffffffffffffffff1681526020019081526020016000206120c28585611d0d90919063ffffffff16565b6122a8565b6120e460016120df8584611d0d90919063ffffffff16565b6122a8565b8373ffffffffffffffffffffffffffffffffffffffff167fcc16f5dbb4873280815c1ee09dbd06736cffcc184412cf7a71a0fdb75d397ca5846040518082815260200191505060405180910390a250505050565b60006121443383612045565b60019050919050565b6000806000806000868054905014156121695760009350612281565b85600187805490500381548110151561217e57fe5b906000526020600020906002020160000154851015156121c6578560018780549050038154811015156121ad57fe5b9060005260206000209060020201600101549350612281565b8560008154811015156121d557fe5b9060005260206000209060020201600001548510156121f75760009350612281565b60009250600186805490500391505b8282111561225e57600260018484010181151561221f57fe5b04905084868281548110151561223157fe5b90600052602060002090600202016000015411151561225257809250612259565b6001810391505b612206565b858381548110151561226c57fe5b90600052602060002090600202016001015493505b50505092915050565b600080828401905083811015151561229e57fe5b8091505092915050565b6000806000848054905014806122e35750438460018680549050038154811015156122cf57fe5b906000526020600020906002020160000154105b1561232f57838480548091906001016122fc91906123d9565b81548110151561230857fe5b9060005260206000209060020201915043826000018190555082826001018190555061235e565b83600185805490500381548110151561234457fe5b906000526020600020906002020190508281600101819055505b50505050565b6060604051908101604052806000600281111561237d57fe5b815260200160008152602001600073ffffffffffffffffffffffffffffffffffffffff1681525090565b8154818355818115116123d4576003028160030283600052602060002091820191016123d3919061240b565b5b505050565b81548183558181151161240657600202816002028360005260206000209182019101612405919061246d565b5b505050565b61246a91905b8082111561246657600080820160006101000a81549060ff021916905560018201600090556002820160006101000a81549073ffffffffffffffffffffffffffffffffffffffff021916905550600301612411565b5090565b90565b61249991905b8082111561249557600080820160009055600182016000905550600201612473565b5090565b905600a165627a7a72305820838cb5ecaaf39b35f5ced997b7cf8810f6bff93a82f2631b8150e338c351239f0029",
  "source": "pragma solidity ^0.4.18;\n\nimport './Stakeable.sol';\nimport './Mintable.sol';\nimport './Approvable.sol';\n\n\n/**\n * @title Trackable ERC20 token\n *\n * @dev Implementation of the trackable token.\n * @dev Based on code by OpenZeppelin: https://github.com/OpenZeppelin/zeppelin-solidity\n * @dev Based on code by Giveth: https://github.com/Giveth/minime/blob/master/contracts/MiniMeToken.sol\n */\n\ncontract TrackableToken is Approvable, Stakeable, Mintable  {\n\n    string public name;\n    uint8 public decimals;\n    string public symbol;\n\n    /**\n    * @dev transfer token for a specified address\n    * @param _to The address to transfer to.\n    * @param _value The amount to be transferred.\n    */\n    function transfer(address _to, uint256 _value) public returns (bool) {\n      require(freeBalanceOf(msg.sender) >= _value);\n      doTransfer(msg.sender, _to, _value);\n      return true;\n    }\n\n    /**\n     * @dev Transfer tokens from one address to another\n     * @param _from address The address which you want to send tokens from\n     * @param _to address The address which you want to transfer to\n     * @param _value uint256 the amount of tokens to be transferred\n     */\n\n    function transferFrom(address _from, address _to, uint256 _value) public returns (bool) {\n      require(_value <= allowed[_from][msg.sender]);\n      require(freeBalanceOf(_from) >= _value);\n      allowed[_from][msg.sender] = allowed[_from][msg.sender].sub(_value);\n\n      doTransfer(_from, _to, _value);\n      return true;\n    }\n\n    /**\n    * @dev Gets the free balance (balance - deposits) of the specified address.\n    * @param _owner The address to query the the balance of.\n    * @return An uint256 representing the amount owned by the passed address.\n    */\n    function freeBalanceOf(address _owner) public view returns (uint256 balance) {\n      return balanceOfAt(_owner, block.number).sub(totalDeposits(_owner));\n    }\n\n    /**\n    * @dev Gets the balance of the specified address.\n    * @param _owner The address to query the the balance of.\n    * @return An uint256 representing the amount owned by the passed address.\n    */\n    function balanceOf(address _owner) public view returns (uint256 balance) {\n      return balanceOfAt(_owner, block.number);\n    }\n\n    /// @dev This function makes it easy to get the total number of tokens\n    /// @return The total number of tokens\n    function totalSupply() public constant returns (uint256) {\n        return totalSupplyAt(block.number);\n    }\n}\n",
  "sourcePath": "/Users/nathan.rempel/ether/lotto/contracts/token/TrackableToken.sol",
  "compiler": {
    "name": "solc",
    "version": "0.4.18+commit.9cf6e910.Emscripten.clang"
  },
  "schemaVersion": "1.0.1",
  "updatedAt": "2018-02-07T04:14:35.494Z"
}