{
  "contractName": "UsefulToken",
  "abi": [
    {
      "constant": true,
      "inputs": [],
      "name": "name",
      "outputs": [
        {
          "name": "",
          "type": "string"
        }
      ],
      "payable": false,
      "stateMutability": "view",
      "type": "function"
    },
    {
      "constant": false,
      "inputs": [
        {
          "name": "_spender",
          "type": "address"
        },
        {
          "name": "_value",
          "type": "uint256"
        }
      ],
      "name": "approve",
      "outputs": [
        {
          "name": "",
          "type": "bool"
        }
      ],
      "payable": false,
      "stateMutability": "nonpayable",
      "type": "function"
    },
    {
      "constant": false,
      "inputs": [
        {
          "name": "_owner",
          "type": "address"
        },
        {
          "name": "_depositID",
          "type": "uint256"
        }
      ],
      "name": "destroyDeposit",
      "outputs": [
        {
          "name": "",
          "type": "bool"
        }
      ],
      "payable": false,
      "stateMutability": "nonpayable",
      "type": "function"
    },
    {
      "constant": true,
      "inputs": [],
      "name": "totalSupply",
      "outputs": [
        {
          "name": "",
          "type": "uint256"
        }
      ],
      "payable": false,
      "stateMutability": "view",
      "type": "function"
    },
    {
      "constant": false,
      "inputs": [
        {
          "name": "_from",
          "type": "address"
        },
        {
          "name": "_to",
          "type": "address"
        },
        {
          "name": "_value",
          "type": "uint256"
        }
      ],
      "name": "transferFrom",
      "outputs": [
        {
          "name": "",
          "type": "bool"
        }
      ],
      "payable": false,
      "stateMutability": "nonpayable",
      "type": "function"
    },
    {
      "constant": true,
      "inputs": [
        {
          "name": "_owner",
          "type": "address"
        },
        {
          "name": "_depositID",
          "type": "uint256"
        }
      ],
      "name": "getDeposit",
      "outputs": [
        {
          "name": "",
          "type": "uint256"
        },
        {
          "name": "",
          "type": "address"
        },
        {
          "name": "",
          "type": "address"
        },
        {
          "name": "",
          "type": "uint8"
        },
        {
          "name": "",
          "type": "uint256"
        }
      ],
      "payable": false,
      "stateMutability": "view",
      "type": "function"
    },
    {
      "constant": true,
      "inputs": [],
      "name": "decimals",
      "outputs": [
        {
          "name": "",
          "type": "uint8"
        }
      ],
      "payable": false,
      "stateMutability": "view",
      "type": "function"
    },
    {
      "constant": false,
      "inputs": [
        {
          "name": "_holder",
          "type": "address"
        },
        {
          "name": "_value",
          "type": "uint256"
        }
      ],
      "name": "submitDeposit",
      "outputs": [
        {
          "name": "",
          "type": "uint256"
        }
      ],
      "payable": false,
      "stateMutability": "nonpayable",
      "type": "function"
    },
    {
      "constant": false,
      "inputs": [
        {
          "name": "_owner",
          "type": "address"
        },
        {
          "name": "_depositID",
          "type": "uint256"
        }
      ],
      "name": "rejectDeposit",
      "outputs": [
        {
          "name": "",
          "type": "bool"
        }
      ],
      "payable": false,
      "stateMutability": "nonpayable",
      "type": "function"
    },
    {
      "constant": false,
      "inputs": [
        {
          "name": "_recipient",
          "type": "address"
        },
        {
          "name": "_value",
          "type": "uint256"
        }
      ],
      "name": "mint",
      "outputs": [],
      "payable": false,
      "stateMutability": "nonpayable",
      "type": "function"
    },
    {
      "constant": false,
      "inputs": [
        {
          "name": "_value",
          "type": "uint256"
        }
      ],
      "name": "burn",
      "outputs": [
        {
          "name": "",
          "type": "bool"
        }
      ],
      "payable": false,
      "stateMutability": "nonpayable",
      "type": "function"
    },
    {
      "constant": true,
      "inputs": [
        {
          "name": "_owner",
          "type": "address"
        },
        {
          "name": "_blockNumber",
          "type": "uint256"
        }
      ],
      "name": "balanceOfAt",
      "outputs": [
        {
          "name": "",
          "type": "uint256"
        }
      ],
      "payable": false,
      "stateMutability": "view",
      "type": "function"
    },
    {
      "constant": false,
      "inputs": [
        {
          "name": "_owner",
          "type": "address"
        },
        {
          "name": "_depositID",
          "type": "uint256"
        }
      ],
      "name": "acceptDeposit",
      "outputs": [
        {
          "name": "",
          "type": "bool"
        }
      ],
      "payable": false,
      "stateMutability": "nonpayable",
      "type": "function"
    },
    {
      "constant": true,
      "inputs": [
        {
          "name": "_owner",
          "type": "address"
        }
      ],
      "name": "freeBalanceOf",
      "outputs": [
        {
          "name": "balance",
          "type": "uint256"
        }
      ],
      "payable": false,
      "stateMutability": "view",
      "type": "function"
    },
    {
      "constant": true,
      "inputs": [
        {
          "name": "_owner",
          "type": "address"
        }
      ],
      "name": "balanceOf",
      "outputs": [
        {
          "name": "balance",
          "type": "uint256"
        }
      ],
      "payable": false,
      "stateMutability": "view",
      "type": "function"
    },
    {
      "constant": false,
      "inputs": [
        {
          "name": "_depositID",
          "type": "uint256"
        }
      ],
      "name": "cancelDeposit",
      "outputs": [
        {
          "name": "",
          "type": "bool"
        }
      ],
      "payable": false,
      "stateMutability": "nonpayable",
      "type": "function"
    },
    {
      "constant": true,
      "inputs": [],
      "name": "owner",
      "outputs": [
        {
          "name": "",
          "type": "address"
        }
      ],
      "payable": false,
      "stateMutability": "view",
      "type": "function"
    },
    {
      "constant": true,
      "inputs": [],
      "name": "symbol",
      "outputs": [
        {
          "name": "",
          "type": "string"
        }
      ],
      "payable": false,
      "stateMutability": "view",
      "type": "function"
    },
    {
      "constant": true,
      "inputs": [
        {
          "name": "_blockNumber",
          "type": "uint256"
        }
      ],
      "name": "totalSupplyAt",
      "outputs": [
        {
          "name": "",
          "type": "uint256"
        }
      ],
      "payable": false,
      "stateMutability": "view",
      "type": "function"
    },
    {
      "constant": false,
      "inputs": [
        {
          "name": "_to",
          "type": "address"
        },
        {
          "name": "_value",
          "type": "uint256"
        }
      ],
      "name": "transfer",
      "outputs": [
        {
          "name": "",
          "type": "bool"
        }
      ],
      "payable": false,
      "stateMutability": "nonpayable",
      "type": "function"
    },
    {
      "constant": false,
      "inputs": [
        {
          "name": "_owner",
          "type": "address"
        },
        {
          "name": "_depositID",
          "type": "uint256"
        }
      ],
      "name": "returnDeposit",
      "outputs": [
        {
          "name": "",
          "type": "bool"
        }
      ],
      "payable": false,
      "stateMutability": "nonpayable",
      "type": "function"
    },
    {
      "constant": true,
      "inputs": [
        {
          "name": "_owner",
          "type": "address"
        },
        {
          "name": "_spender",
          "type": "address"
        }
      ],
      "name": "allowance",
      "outputs": [
        {
          "name": "",
          "type": "uint256"
        }
      ],
      "payable": false,
      "stateMutability": "view",
      "type": "function"
    },
    {
      "constant": true,
      "inputs": [
        {
          "name": "_owner",
          "type": "address"
        }
      ],
      "name": "totalDeposits",
      "outputs": [
        {
          "name": "",
          "type": "uint256"
        }
      ],
      "payable": false,
      "stateMutability": "view",
      "type": "function"
    },
    {
      "constant": false,
      "inputs": [
        {
          "name": "newOwner",
          "type": "address"
        }
      ],
      "name": "transferOwnership",
      "outputs": [],
      "payable": false,
      "stateMutability": "nonpayable",
      "type": "function"
    },
    {
      "anonymous": false,
      "inputs": [
        {
          "indexed": true,
          "name": "recipient",
          "type": "address"
        },
        {
          "indexed": false,
          "name": "value",
          "type": "uint256"
        }
      ],
      "name": "Mint",
      "type": "event"
    },
    {
      "anonymous": false,
      "inputs": [
        {
          "indexed": true,
          "name": "previousOwner",
          "type": "address"
        },
        {
          "indexed": true,
          "name": "newOwner",
          "type": "address"
        }
      ],
      "name": "OwnershipTransferred",
      "type": "event"
    },
    {
      "anonymous": false,
      "inputs": [
        {
          "indexed": true,
          "name": "owner",
          "type": "address"
        },
        {
          "indexed": true,
          "name": "holder",
          "type": "address"
        },
        {
          "indexed": false,
          "name": "value",
          "type": "uint256"
        },
        {
          "indexed": false,
          "name": "id",
          "type": "uint256"
        }
      ],
      "name": "SubmitDeposit",
      "type": "event"
    },
    {
      "anonymous": false,
      "inputs": [
        {
          "indexed": true,
          "name": "owner",
          "type": "address"
        },
        {
          "indexed": true,
          "name": "holder",
          "type": "address"
        },
        {
          "indexed": false,
          "name": "value",
          "type": "uint256"
        },
        {
          "indexed": false,
          "name": "id",
          "type": "uint256"
        }
      ],
      "name": "AcceptDeposit",
      "type": "event"
    },
    {
      "anonymous": false,
      "inputs": [
        {
          "indexed": true,
          "name": "owner",
          "type": "address"
        },
        {
          "indexed": true,
          "name": "holder",
          "type": "address"
        },
        {
          "indexed": false,
          "name": "value",
          "type": "uint256"
        },
        {
          "indexed": false,
          "name": "id",
          "type": "uint256"
        }
      ],
      "name": "RejectDeposit",
      "type": "event"
    },
    {
      "anonymous": false,
      "inputs": [
        {
          "indexed": true,
          "name": "owner",
          "type": "address"
        },
        {
          "indexed": true,
          "name": "holder",
          "type": "address"
        },
        {
          "indexed": false,
          "name": "value",
          "type": "uint256"
        },
        {
          "indexed": false,
          "name": "id",
          "type": "uint256"
        }
      ],
      "name": "CancelDeposit",
      "type": "event"
    },
    {
      "anonymous": false,
      "inputs": [
        {
          "indexed": true,
          "name": "owner",
          "type": "address"
        },
        {
          "indexed": true,
          "name": "holder",
          "type": "address"
        },
        {
          "indexed": false,
          "name": "value",
          "type": "uint256"
        },
        {
          "indexed": false,
          "name": "id",
          "type": "uint256"
        }
      ],
      "name": "ReturnDeposit",
      "type": "event"
    },
    {
      "anonymous": false,
      "inputs": [
        {
          "indexed": true,
          "name": "owner",
          "type": "address"
        },
        {
          "indexed": true,
          "name": "holder",
          "type": "address"
        },
        {
          "indexed": false,
          "name": "value",
          "type": "uint256"
        },
        {
          "indexed": false,
          "name": "id",
          "type": "uint256"
        }
      ],
      "name": "DestroyDeposit",
      "type": "event"
    },
    {
      "anonymous": false,
      "inputs": [
        {
          "indexed": true,
          "name": "burner",
          "type": "address"
        },
        {
          "indexed": false,
          "name": "value",
          "type": "uint256"
        }
      ],
      "name": "Burn",
      "type": "event"
    },
    {
      "anonymous": false,
      "inputs": [
        {
          "indexed": true,
          "name": "owner",
          "type": "address"
        },
        {
          "indexed": true,
          "name": "spender",
          "type": "address"
        },
        {
          "indexed": false,
          "name": "value",
          "type": "uint256"
        }
      ],
      "name": "Approval",
      "type": "event"
    },
    {
      "anonymous": false,
      "inputs": [
        {
          "indexed": true,
          "name": "from",
          "type": "address"
        },
        {
          "indexed": true,
          "name": "to",
          "type": "address"
        },
        {
          "indexed": false,
          "name": "value",
          "type": "uint256"
        }
      ],
      "name": "Transfer",
      "type": "event"
    }
  ],
  "bytecode": "0x606060405233600460006101000a81548173ffffffffffffffffffffffffffffffffffffffff021916908373ffffffffffffffffffffffffffffffffffffffff1602179055506129ea806100546000396000f30060606040526004361061013e576000357c0100000000000000000000000000000000000000000000000000000000900463ffffffff16806306fdde0314610143578063095ea7b3146101d157806313c704b91461022b57806318160ddd1461028557806323b872dd146102ae5780632726b50614610327578063313ce567146103ff57806334d2a1681461042e57806338e9a2801461048457806340c10f19146104de57806342966c68146105205780634ee2cd7e1461055b57806353e27334146105b1578063543e99541461060b57806370a082311461065857806372fada5c146106a55780638da5cb5b146106e057806395d89b4114610735578063981b24d0146107c3578063a9059cbb146107fa578063d29709fb14610854578063dd62ed3e146108ae578063e94032561461091a578063f2fde38b14610967575b600080fd5b341561014e57600080fd5b6101566109a0565b6040518080602001828103825283818151815260200191508051906020019080838360005b8381101561019657808201518184015260208101905061017b565b50505050905090810190601f1680156101c35780820380516001836020036101000a031916815260200191505b509250505060405180910390f35b34156101dc57600080fd5b610211600480803573ffffffffffffffffffffffffffffffffffffffff16906020019091908035906020019091905050610a3e565b604051808215151515815260200191505060405180910390f35b341561023657600080fd5b61026b600480803573ffffffffffffffffffffffffffffffffffffffff16906020019091908035906020019091905050610b30565b604051808215151515815260200191505060405180910390f35b341561029057600080fd5b610298610d90565b6040518082815260200191505060405180910390f35b34156102b957600080fd5b61030d600480803573ffffffffffffffffffffffffffffffffffffffff1690602001909190803573ffffffffffffffffffffffffffffffffffffffff16906020019091908035906020019091905050610da0565b604051808215151515815260200191505060405180910390f35b341561033257600080fd5b610367600480803573ffffffffffffffffffffffffffffffffffffffff16906020019091908035906020019091905050610f69565b604051808681526020018573ffffffffffffffffffffffffffffffffffffffff1673ffffffffffffffffffffffffffffffffffffffff1681526020018473ffffffffffffffffffffffffffffffffffffffff1673ffffffffffffffffffffffffffffffffffffffff1681526020018360058111156103e157fe5b60ff1681526020018281526020019550505050505060405180910390f35b341561040a57600080fd5b610412611099565b604051808260ff1660ff16815260200191505060405180910390f35b341561043957600080fd5b61046e600480803573ffffffffffffffffffffffffffffffffffffffff169060200190919080359060200190919050506110ac565b6040518082815260200191505060405180910390f35b341561048f57600080fd5b6104c4600480803573ffffffffffffffffffffffffffffffffffffffff16906020019091908035906020019091905050611358565b604051808215151515815260200191505060405180910390f35b34156104e957600080fd5b61051e600480803573ffffffffffffffffffffffffffffffffffffffff16906020019091908035906020019091905050611586565b005b341561052b57600080fd5b61054160048080359060200190919050506115f0565b604051808215151515815260200191505060405180910390f35b341561056657600080fd5b61059b600480803573ffffffffffffffffffffffffffffffffffffffff1690602001909190803590602001909190505061163f565b6040518082815260200191505060405180910390f35b34156105bc57600080fd5b6105f1600480803573ffffffffffffffffffffffffffffffffffffffff16906020019091908035906020019091905050611690565b604051808215151515815260200191505060405180910390f35b341561061657600080fd5b610642600480803573ffffffffffffffffffffffffffffffffffffffff169060200190919050506118be565b6040518082815260200191505060405180910390f35b341561066357600080fd5b61068f600480803573ffffffffffffffffffffffffffffffffffffffff169060200190919050506118eb565b6040518082815260200191505060405180910390f35b34156106b057600080fd5b6106c660048080359060200190919050506118fe565b604051808215151515815260200191505060405180910390f35b34156106eb57600080fd5b6106f3611b2b565b604051808273ffffffffffffffffffffffffffffffffffffffff1673ffffffffffffffffffffffffffffffffffffffff16815260200191505060405180910390f35b341561074057600080fd5b610748611b51565b6040518080602001828103825283818151815260200191508051906020019080838360005b8381101561078857808201518184015260208101905061076d565b50505050905090810190601f1680156107b55780820380516001836020036101000a031916815260200191505b509250505060405180910390f35b34156107ce57600080fd5b6107e46004808035906020019091905050611bef565b6040518082815260200191505060405180910390f35b341561080557600080fd5b61083a600480803573ffffffffffffffffffffffffffffffffffffffff16906020019091908035906020019091905050611c03565b604051808215151515815260200191505060405180910390f35b341561085f57600080fd5b610894600480803573ffffffffffffffffffffffffffffffffffffffff16906020019091908035906020019091905050611c31565b604051808215151515815260200191505060405180910390f35b34156108b957600080fd5b610904600480803573ffffffffffffffffffffffffffffffffffffffff1690602001909190803573ffffffffffffffffffffffffffffffffffffffff16906020019091905050611e5f565b6040518082815260200191505060405180910390f35b341561092557600080fd5b610951600480803573ffffffffffffffffffffffffffffffffffffffff16906020019091905050611ee6565b6040518082815260200191505060405180910390f35b341561097257600080fd5b61099e600480803573ffffffffffffffffffffffffffffffffffffffff16906020019091905050612084565b005b60058054600181600116156101000203166002900480601f016020809104026020016040519081016040528092919081815260200182805460018160011615610100020316600290048015610a365780601f10610a0b57610100808354040283529160200191610a36565b820191906000526020600020905b815481529060010190602001808311610a1957829003601f168201915b505050505081565b600081600260003373ffffffffffffffffffffffffffffffffffffffff1673ffffffffffffffffffffffffffffffffffffffff16815260200190815260200160002060008573ffffffffffffffffffffffffffffffffffffffff1673ffffffffffffffffffffffffffffffffffffffff168152602001908152602001600020819055508273ffffffffffffffffffffffffffffffffffffffff163373ffffffffffffffffffffffffffffffffffffffff167f8c5be1e5ebec7d5bd14f71427d1e84f3dd0314c0f7b2291e5b200ac8c7c3b925846040518082815260200191505060405180910390a36001905092915050565b60008082600360008673ffffffffffffffffffffffffffffffffffffffff1673ffffffffffffffffffffffffffffffffffffffff16815260200190815260200160002080549050111515610b8357600080fd5b600360008573ffffffffffffffffffffffffffffffffffffffff1673ffffffffffffffffffffffffffffffffffffffff16815260200190815260200160002083815481101515610bcf57fe5b906000526020600020906004020190503373ffffffffffffffffffffffffffffffffffffffff168160020160009054906101000a900473ffffffffffffffffffffffffffffffffffffffff1673ffffffffffffffffffffffffffffffffffffffff16148015610c65575060016005811115610c4657fe5b8160020160149054906101000a900460ff166005811115610c6357fe5b145b1515610c7057600080fd5b610ca28160010160009054906101000a900473ffffffffffffffffffffffffffffffffffffffff1682600301546121dc565b60058160020160146101000a81548160ff02191690836005811115610cc357fe5b02179055508060020160009054906101000a900473ffffffffffffffffffffffffffffffffffffffff1673ffffffffffffffffffffffffffffffffffffffff168160010160009054906101000a900473ffffffffffffffffffffffffffffffffffffffff1673ffffffffffffffffffffffffffffffffffffffff167fa37d2df93940185e034f33e9312d95e49f9276acc6f211a02b3bca62caa85e7d83600301548460000154604051808381526020018281526020019250505060405180910390a3600191505092915050565b6000610d9b43611bef565b905090565b6000600260008573ffffffffffffffffffffffffffffffffffffffff1673ffffffffffffffffffffffffffffffffffffffff16815260200190815260200160002060003373ffffffffffffffffffffffffffffffffffffffff1673ffffffffffffffffffffffffffffffffffffffff168152602001908152602001600020548211151515610e2d57600080fd5b81610e37856118be565b10151515610e4457600080fd5b610ed382600260008773ffffffffffffffffffffffffffffffffffffffff1673ffffffffffffffffffffffffffffffffffffffff16815260200190815260200160002060003373ffffffffffffffffffffffffffffffffffffffff1673ffffffffffffffffffffffffffffffffffffffff168152602001908152602001600020546122cf90919063ffffffff16565b600260008673ffffffffffffffffffffffffffffffffffffffff1673ffffffffffffffffffffffffffffffffffffffff16815260200190815260200160002060003373ffffffffffffffffffffffffffffffffffffffff1673ffffffffffffffffffffffffffffffffffffffff16815260200190815260200160002081905550610f5e8484846122e8565b600190509392505050565b60008060008060008086600360008a73ffffffffffffffffffffffffffffffffffffffff1673ffffffffffffffffffffffffffffffffffffffff16815260200190815260200160002080549050111515610fc257600080fd5b600360008973ffffffffffffffffffffffffffffffffffffffff1673ffffffffffffffffffffffffffffffffffffffff1681526020019081526020016000208781548110151561100e57fe5b9060005260206000209060040201905080600001548160010160009054906101000a900473ffffffffffffffffffffffffffffffffffffffff168260020160009054906101000a900473ffffffffffffffffffffffffffffffffffffffff168360020160149054906101000a900460ff16846003015495509550955095509550509295509295909350565b600660009054906101000a900460ff1681565b6000806000806110ba612833565b600360003373ffffffffffffffffffffffffffffffffffffffff1673ffffffffffffffffffffffffffffffffffffffff168152602001908152602001600020805490509350611109334361163f565b925061111433611ee6565b91508561112a83856122cf90919063ffffffff16565b1015151561113757600080fd5b60a0604051908101604052808581526020013373ffffffffffffffffffffffffffffffffffffffff1681526020018873ffffffffffffffffffffffffffffffffffffffff1681526020016000600581111561118e57fe5b8152602001878152509050600360003373ffffffffffffffffffffffffffffffffffffffff1673ffffffffffffffffffffffffffffffffffffffff16815260200190815260200160002080548060010182816111ea919061289a565b916000526020600020906004020160008390919091506000820151816000015560208201518160010160006101000a81548173ffffffffffffffffffffffffffffffffffffffff021916908373ffffffffffffffffffffffffffffffffffffffff16021790555060408201518160020160006101000a81548173ffffffffffffffffffffffffffffffffffffffff021916908373ffffffffffffffffffffffffffffffffffffffff16021790555060608201518160020160146101000a81548160ff021916908360058111156112bc57fe5b021790555060808201518160030155505050806040015173ffffffffffffffffffffffffffffffffffffffff16816020015173ffffffffffffffffffffffffffffffffffffffff167fbbb31c154ac6d68684abbe0777a615aacda260972131765ac9d9158f3dba1b6183608001518460000151604051808381526020018281526020019250505060405180910390a38394505050505092915050565b60008082600360008673ffffffffffffffffffffffffffffffffffffffff1673ffffffffffffffffffffffffffffffffffffffff168152602001908152602001600020805490501115156113ab57600080fd5b600360008573ffffffffffffffffffffffffffffffffffffffff1673ffffffffffffffffffffffffffffffffffffffff168152602001908152602001600020838154811015156113f757fe5b906000526020600020906004020190503373ffffffffffffffffffffffffffffffffffffffff168160020160009054906101000a900473ffffffffffffffffffffffffffffffffffffffff1673ffffffffffffffffffffffffffffffffffffffff1614801561148d57506000600581111561146e57fe5b8160020160149054906101000a900460ff16600581111561148b57fe5b145b151561149857600080fd5b60038160020160146101000a81548160ff021916908360058111156114b957fe5b02179055508060020160009054906101000a900473ffffffffffffffffffffffffffffffffffffffff1673ffffffffffffffffffffffffffffffffffffffff168160010160009054906101000a900473ffffffffffffffffffffffffffffffffffffffff1673ffffffffffffffffffffffffffffffffffffffff167f5fafee86c07caba8ff962f1bcd4c6f337dd5c2f78114fab90c859b13db74a33783600301548460000154604051808381526020018281526020019250505060405180910390a3600191505092915050565b600460009054906101000a900473ffffffffffffffffffffffffffffffffffffffff1673ffffffffffffffffffffffffffffffffffffffff163373ffffffffffffffffffffffffffffffffffffffff161415156115e257600080fd5b6115ec8282612523565b5050565b60008060006115ff334361163f565b915061160a33611ee6565b90508361162082846122cf90919063ffffffff16565b1015151561162d57600080fd5b61163684612607565b92505050919050565b60006116886000808573ffffffffffffffffffffffffffffffffffffffff1673ffffffffffffffffffffffffffffffffffffffff1681526020019081526020016000208361261c565b905092915050565b60008082600360008673ffffffffffffffffffffffffffffffffffffffff1673ffffffffffffffffffffffffffffffffffffffff168152602001908152602001600020805490501115156116e357600080fd5b600360008573ffffffffffffffffffffffffffffffffffffffff1673ffffffffffffffffffffffffffffffffffffffff1681526020019081526020016000208381548110151561172f57fe5b906000526020600020906004020190503373ffffffffffffffffffffffffffffffffffffffff168160020160009054906101000a900473ffffffffffffffffffffffffffffffffffffffff1673ffffffffffffffffffffffffffffffffffffffff161480156117c55750600060058111156117a657fe5b8160020160149054906101000a900460ff1660058111156117c357fe5b145b15156117d057600080fd5b60018160020160146101000a81548160ff021916908360058111156117f157fe5b02179055508060020160009054906101000a900473ffffffffffffffffffffffffffffffffffffffff1673ffffffffffffffffffffffffffffffffffffffff168160010160009054906101000a900473ffffffffffffffffffffffffffffffffffffffff1673ffffffffffffffffffffffffffffffffffffffff167f739e292abba03c6d1245b39079daa2c618b7775d85a7c4a58eba04be3be49d0e83600301548460000154604051808381526020018281526020019250505060405180910390a3600191505092915050565b60006118e46118cc83611ee6565b6118d6844361163f565b6122cf90919063ffffffff16565b9050919050565b60006118f7824361163f565b9050919050565b60008082600360003373ffffffffffffffffffffffffffffffffffffffff1673ffffffffffffffffffffffffffffffffffffffff1681526020019081526020016000208054905011151561195157600080fd5b600360003373ffffffffffffffffffffffffffffffffffffffff1673ffffffffffffffffffffffffffffffffffffffff1681526020019081526020016000208381548110151561199d57fe5b906000526020600020906004020190503373ffffffffffffffffffffffffffffffffffffffff168160010160009054906101000a900473ffffffffffffffffffffffffffffffffffffffff1673ffffffffffffffffffffffffffffffffffffffff16148015611a33575060006005811115611a1457fe5b8160020160149054906101000a900460ff166005811115611a3157fe5b145b1515611a3e57600080fd5b60028160020160146101000a81548160ff02191690836005811115611a5f57fe5b02179055508060020160009054906101000a900473ffffffffffffffffffffffffffffffffffffffff1673ffffffffffffffffffffffffffffffffffffffff168160010160009054906101000a900473ffffffffffffffffffffffffffffffffffffffff1673ffffffffffffffffffffffffffffffffffffffff167fcd097ed2c9aa081cb2f5a864e6b0cadd9ffa6b7f27338fe3af2f18c1db94f2ff83600301548460000154604051808381526020018281526020019250505060405180910390a36001915050919050565b600460009054906101000a900473ffffffffffffffffffffffffffffffffffffffff1681565b60078054600181600116156101000203166002900480601f016020809104026020016040519081016040528092919081815260200182805460018160011615610100020316600290048015611be75780601f10611bbc57610100808354040283529160200191611be7565b820191906000526020600020905b815481529060010190602001808311611bca57829003601f168201915b505050505081565b6000611bfc60018361261c565b9050919050565b600081611c0f336118be565b10151515611c1c57600080fd5b611c273384846122e8565b6001905092915050565b60008082600360008673ffffffffffffffffffffffffffffffffffffffff1673ffffffffffffffffffffffffffffffffffffffff16815260200190815260200160002080549050111515611c8457600080fd5b600360008573ffffffffffffffffffffffffffffffffffffffff1673ffffffffffffffffffffffffffffffffffffffff16815260200190815260200160002083815481101515611cd057fe5b906000526020600020906004020190503373ffffffffffffffffffffffffffffffffffffffff168160020160009054906101000a900473ffffffffffffffffffffffffffffffffffffffff1673ffffffffffffffffffffffffffffffffffffffff16148015611d66575060016005811115611d4757fe5b8160020160149054906101000a900460ff166005811115611d6457fe5b145b1515611d7157600080fd5b60048160020160146101000a81548160ff02191690836005811115611d9257fe5b02179055508060020160009054906101000a900473ffffffffffffffffffffffffffffffffffffffff1673ffffffffffffffffffffffffffffffffffffffff168160010160009054906101000a900473ffffffffffffffffffffffffffffffffffffffff1673ffffffffffffffffffffffffffffffffffffffff167f0f13c94404402754fc32731e1f926250cfe61d9c42dcba710918635160a3633283600301548460000154604051808381526020018281526020019250505060405180910390a3600191505092915050565b6000600260008473ffffffffffffffffffffffffffffffffffffffff1673ffffffffffffffffffffffffffffffffffffffff16815260200190815260200160002060008373ffffffffffffffffffffffffffffffffffffffff1673ffffffffffffffffffffffffffffffffffffffff16815260200190815260200160002054905092915050565b6000806000806000600360008773ffffffffffffffffffffffffffffffffffffffff1673ffffffffffffffffffffffffffffffffffffffff168152602001908152602001600020805490501415611f40576000935061207c565b60009250600091505b600360008673ffffffffffffffffffffffffffffffffffffffff1673ffffffffffffffffffffffffffffffffffffffff1681526020019081526020016000208054905082101561207857600360008673ffffffffffffffffffffffffffffffffffffffff1673ffffffffffffffffffffffffffffffffffffffff16815260200190815260200160002082815481101515611fdf57fe5b9060005260206000209060040201905060016005811115611ffc57fe5b8160020160149054906101000a900460ff16600581111561201957fe5b148061204c57506000600581111561202d57fe5b8160020160149054906101000a900460ff16600581111561204a57fe5b145b1561206b5761206881600301548461275990919063ffffffff16565b92505b8180600101925050611f49565b8293505b505050919050565b600460009054906101000a900473ffffffffffffffffffffffffffffffffffffffff1673ffffffffffffffffffffffffffffffffffffffff163373ffffffffffffffffffffffffffffffffffffffff161415156120e057600080fd5b600073ffffffffffffffffffffffffffffffffffffffff168173ffffffffffffffffffffffffffffffffffffffff161415151561211c57600080fd5b8073ffffffffffffffffffffffffffffffffffffffff16600460009054906101000a900473ffffffffffffffffffffffffffffffffffffffff1673ffffffffffffffffffffffffffffffffffffffff167f8be0079c531659141344cd1fd0a4f28419497f9722a3daafe3b4186f6b6457e060405160405180910390a380600460006101000a81548173ffffffffffffffffffffffffffffffffffffffff021916908373ffffffffffffffffffffffffffffffffffffffff16021790555050565b6000806121e9844361163f565b91508282101515156121fa57600080fd5b61220343611bef565b905061225e6000808673ffffffffffffffffffffffffffffffffffffffff1673ffffffffffffffffffffffffffffffffffffffff16815260200190815260200160002061225985856122cf90919063ffffffff16565b612777565b61227b600161227685846122cf90919063ffffffff16565b612777565b8373ffffffffffffffffffffffffffffffffffffffff167fcc16f5dbb4873280815c1ee09dbd06736cffcc184412cf7a71a0fdb75d397ca5846040518082815260200191505060405180910390a250505050565b60008282111515156122dd57fe5b818303905092915050565b600080600083141561235e578373ffffffffffffffffffffffffffffffffffffffff168573ffffffffffffffffffffffffffffffffffffffff167fddf252ad1be2c89b69c2b068fc378daa952ba7f163c4a11628f55a4df523b3ef856040518082815260200191505060405180910390a361251c565b60008473ffffffffffffffffffffffffffffffffffffffff16141580156123b157503073ffffffffffffffffffffffffffffffffffffffff168473ffffffffffffffffffffffffffffffffffffffff1614155b15156123bc57600080fd5b6123c6854361163f565b91508282101515156123d757600080fd5b6124306000808773ffffffffffffffffffffffffffffffffffffffff1673ffffffffffffffffffffffffffffffffffffffff16815260200190815260200160002061242b85856122cf90919063ffffffff16565b612777565b61243a844361163f565b905080612450848361275990919063ffffffff16565b1015151561245d57600080fd5b6124b66000808673ffffffffffffffffffffffffffffffffffffffff1673ffffffffffffffffffffffffffffffffffffffff1681526020019081526020016000206124b1858461275990919063ffffffff16565b612777565b8373ffffffffffffffffffffffffffffffffffffffff168573ffffffffffffffffffffffffffffffffffffffff167fddf252ad1be2c89b69c2b068fc378daa952ba7f163c4a11628f55a4df523b3ef856040518082815260200191505060405180910390a35b5050505050565b600080612530844361163f565b915061253b43611bef565b90506125966000808673ffffffffffffffffffffffffffffffffffffffff1673ffffffffffffffffffffffffffffffffffffffff168152602001908152602001600020612591858561275990919063ffffffff16565b612777565b6125b360016125ae858461275990919063ffffffff16565b612777565b8373ffffffffffffffffffffffffffffffffffffffff167f0f6798a560793a54c3bcfe86a93cde1e73087d944c0ea20544137d4121396885846040518082815260200191505060405180910390a250505050565b600061261333836121dc565b60019050919050565b6000806000806000868054905014156126385760009350612750565b85600187805490500381548110151561264d57fe5b906000526020600020906002020160000154851015156126955785600187805490500381548110151561267c57fe5b9060005260206000209060020201600101549350612750565b8560008154811015156126a457fe5b9060005260206000209060020201600001548510156126c65760009350612750565b60009250600186805490500391505b8282111561272d5760026001848401018115156126ee57fe5b04905084868281548110151561270057fe5b90600052602060002090600202016000015411151561272157809250612728565b6001810391505b6126d5565b858381548110151561273b57fe5b90600052602060002090600202016001015493505b50505092915050565b600080828401905083811015151561276d57fe5b8091505092915050565b6000806000848054905014806127b257504384600186805490500381548110151561279e57fe5b906000526020600020906002020160000154105b156127fe57838480548091906001016127cb91906128cc565b8154811015156127d757fe5b9060005260206000209060020201915043826000018190555082826001018190555061282d565b83600185805490500381548110151561281357fe5b906000526020600020906002020190508281600101819055505b50505050565b60a06040519081016040528060008152602001600073ffffffffffffffffffffffffffffffffffffffff168152602001600073ffffffffffffffffffffffffffffffffffffffff1681526020016000600581111561288d57fe5b8152602001600081525090565b8154818355818115116128c7576004028160040283600052602060002091820191016128c691906128fe565b5b505050565b8154818355818115116128f9576002028160020283600052602060002091820191016128f8919061298f565b5b505050565b61298c91905b80821115612988576000808201600090556001820160006101000a81549073ffffffffffffffffffffffffffffffffffffffff02191690556002820160006101000a81549073ffffffffffffffffffffffffffffffffffffffff02191690556002820160146101000a81549060ff0219169055600382016000905550600401612904565b5090565b90565b6129bb91905b808211156129b757600080820160009055600182016000905550600201612995565b5090565b905600a165627a7a7230582067264b8a6d255602da5ccd0dae01dbcfa70ce7e07794b895828b2d99e52ae6f30029",
  "source": "pragma solidity ^0.4.18;\n\nimport './Stakeable.sol';\nimport './Mintable.sol';\nimport './Approvable.sol';\n\n\n/**\n * @title Useful ERC20 token\n *\n * @dev Implementation of the trackable token.\n * @dev Based on code by OpenZeppelin: https://github.com/OpenZeppelin/zeppelin-solidity\n * @dev Based on code by Giveth: https://github.com/Giveth/minime/blob/master/contracts/MiniMeToken.sol\n */\n\ncontract UsefulToken is Approvable, Stakeable, Mintable  {\n\n    string public name;\n    uint8 public decimals;\n    string public symbol;\n\n    /**\n    * @dev transfer token for a specified address\n    * @param _to The address to transfer to.\n    * @param _value The amount to be transferred.\n    */\n    function transfer(address _to, uint256 _value) public returns (bool) {\n      require(freeBalanceOf(msg.sender) >= _value);\n      doTransfer(msg.sender, _to, _value);\n      return true;\n    }\n\n    /**\n     * @dev Transfer tokens from one address to another\n     * @param _from address The address which you want to send tokens from\n     * @param _to address The address which you want to transfer to\n     * @param _value uint256 the amount of tokens to be transferred\n     */\n\n    function transferFrom(address _from, address _to, uint256 _value) public returns (bool) {\n      require(_value <= allowed[_from][msg.sender]);\n      require(freeBalanceOf(_from) >= _value);\n      allowed[_from][msg.sender] = allowed[_from][msg.sender].sub(_value);\n\n      doTransfer(_from, _to, _value);\n      return true;\n    }\n\n    /**\n    * @dev Gets the free balance (balance - deposits) of the specified address.\n    * @param _owner The address to query the the balance of.\n    * @return An uint256 representing the amount owned by the passed address.\n    */\n    function freeBalanceOf(address _owner) public view returns (uint256 balance) {\n      return balanceOfAt(_owner, block.number).sub(totalDeposits(_owner));\n    }\n\n    /**\n    * @dev Gets the balance of the specified address.\n    * @param _owner The address to query the the balance of.\n    * @return An uint256 representing the amount owned by the passed address.\n    */\n    function balanceOf(address _owner) public view returns (uint256 balance) {\n      return balanceOfAt(_owner, block.number);\n    }\n\n    /// @dev This function makes it easy to get the total number of tokens\n    /// @return The total number of tokens\n    function totalSupply() public constant returns (uint256) {\n        return totalSupplyAt(block.number);\n    }\n}\n",
  "sourcePath": "/Users/nathan.rempel/ether/lotto/contracts/token/UsefulToken.sol",
  "compiler": {
    "name": "solc",
    "version": "0.4.18+commit.9cf6e910.Emscripten.clang"
  },
  "schemaVersion": "1.0.1",
  "updatedAt": "2018-02-09T01:16:26.821Z"
}